:020000040800F2
:1000000000200020253A0008A9390008B13900086D
:1000100000000000000000000000000000000000E0
:10002000000000000000000000000000B9390008D6
:100030000000000000000000C3390008CD390008AE
:10004000753A000800000000753A0008753A00088B
:10005000753A0008753A0008753A0008753A0008C4
:1000600000000000753A0008753A0008753A00086B
:10007000753A0008753A0008753A0008000000005B
:10008000753A0008753A000800000000753A00084B
:10009000753A0008753A0008753A0008753A000884
:1000A000753A0008753A0008753A0008753A000874
:1000B000753A000800000000000000000000000089
:1000C000002934D00123002210B488422CD301240B
:1000D0002407A14204D2814202D209011B01F8E7A0
:1000E000E400A14204D2814202D249005B00F8E759
:1000F000884201D3401A1A434C08A04202D3001B85
:100100005C0822438C08A04202D3001B9C082243B7
:10011000CC08A04202D3001BDC082243002803D0F5
:100120001B0901D00909E3E7100010BC704701B5B5
:10013000002000F05FF802BD0029F8D003B5FFF7FA
:10014000C1FF0EBC4243891A1847C046002941D05E
:1001500010B404004C40A44601230022002900D51D
:100160004942002800D5404288422CD3012424076C
:10017000A14204D2814202D209011B01F8E7E40046
:10018000A14204D2814202D249005B00F8E78842D2
:1001900001D3401A1A434C08A04202D3001B5C084A
:1001A00022438C08A04202D3001B9C082243CC08A7
:1001B000A04202D3001BDC082243002803D01B0905
:1001C00001D00909E3E710006446002C00D5404245
:1001D00010BC704701B5002000F00CF802BDC0460D
:1001E0000029F7D003B5FFF7B3FF0EBC4243891ACD
:1001F0001847C0467047C046844608006146FFE77E
:100200001FB506F020FE002801D40021C8421FBD02
:1002100010B506F0B5FD4042013010BD10B506F036
:1002200012FE002801DB002010BD012010BDC046D9
:1002300010B506F008FE002801DD002010BD0120E9
:1002400010BDC04610B506F0C0FD002801DC00203E
:1002500010BD012010BDC04610B506F0B6FD002847
:1002600001DA002010BD012010BDC046002B11D1C5
:10027000002A0FD1002900D1002802D00021C94353
:10028000080007B4024802A14018029003BDC0460E
:1002900065FFFFFF03B4684601B5029806F0C6FA91
:1002A000019B9E4602B00CBC7047C04602B471462A
:1002B00049084900095C49008E4402BC7047C046A9
:1002C000D0400B00D1409C46203AD34018435242C4
:1002D00063469340184370479140030090409C460A
:1002E000203A9340194352426346D3401943704722
:1002F0001C2101231B04984201D3000C10391B0A56
:10030000984201D3000A08391B09984201D3000919
:10031000043902A2105C40187047C0460403020270
:1003200001010101000000000000000010B50029DB
:1003300003D1FFF7DDFF203002E00800FFF7D8FF10
:1003400010BDC046F0B50500830749D0541E002AF1
:1003500045D003000326CAB202E00135013C3ED37A
:1003600001332A703342F8D1032C30D9FF220A40DE
:100370001502AD182A04AD180F2C34D92700103FF0
:100380003F093E01B4461E001A001036664415604F
:1003900055609560D56010329642F8D101373F0123
:1003A000DB190F270C22274022403C00002A0ED0E8
:1003B0003E1FB608B400A4461A001C1D644420C2A7
:1003C000A242FCD103240136B6009B193C40002C0C
:1003D00005D0C9B21C19197001339C42FBD1F0BD84
:1003E00003001400C0E72700E2E7C04670B50D4BDC
:1003F0000D4D5E1BB610AB4205D0002408CD013474
:100400009847A642FAD807F053F8084B084D5E1BF0
:10041000B610AB4205D0002408CD01349847A6425F
:10042000FAD870BD04760008047600080876000843
:100430000476000810B5064C2378002B07D1054B35
:10044000002B02D0044800E000BF0123237010BD40
:100450000C00002000000000B0740008044B10B530
:10046000002B03D00349044800E000BF10BDC04684
:100470000000000010000020B074000880B500AF3C
:10048000C046BD4680BD000080B582B000AF786038
:100490007B68002B01D101238FE07B6841229B5CAC
:1004A000DBB2002B07D17B684022002199547B6886
:1004B000180003F0DFF87B684122242199547B68FF
:1004C0001B681A687B681B6801218A431A607B6875
:1004D0005A687B681B683B490A401A617B681B6845
:1004E0009A687B681B6838490A409A607B68DB68B9
:1004F000012B08D17B689A687B681B688021090200
:100500000A439A6007E07B689A687B681B688421CD
:1005100009020A439A607B68DB68022B09D17B6879
:100520001B685A687B681B68802109010A435A606E
:1005300007E07B681B685A687B681B6823490A4090
:100540005A607B681B685A687B681B6820490A43AD
:100550005A607B681B68DA687B681B681A490A4026
:10056000DA607B681A697B685B691A4311007B68F3
:100570009B691A027B681B680A43DA607B68D96949
:100580007B681A6A7B681B680A431A607B681B6871
:100590001A687B681B6801210A431A607B68002285
:1005A0005A647B684122202199547B6800221A6397
:1005B0007B6842220021995400231800BD4602B0F6
:1005C00080BDC046FFFFFFF0FF7FFFFFFFF7FFFF8B
:1005D0000080000290B589B002AFF8600C001000F6
:1005E00019000A23FB18221C1A800823FB18021C7E
:1005F0001A80BB1D0A1C1A80FB6841229B5CDBB27F
:10060000202B00D00CE1BB6A002B04D02C23FB185C
:100610001B88002B05D1FB68802292005A640123BD
:10062000FFE0FB6840229B5C012B01D10223F8E034
:10063000FB6840220121995401F072FB03007B61A9
:1006400080231902F8687B6900931923012200F0C6
:100650000BFB031E01D00123E3E0FB6841222121B3
:100660009954FB68422240219954FB6800225A6445
:10067000FB68BA6A5A62FB682C22BA1812885A853B
:10068000FB6800225A63BB1D1C880823FB181A88CC
:100690000A23FB181988F8687B6901933B6B009368
:1006A000230000F0F9F9031E05D0FB684022002169
:1006B00099540123B5E0FB685B8D9BB2FF2B11D9E8
:1006C000FB68FF221A85FB681B8DDAB280235C046D
:1006D0000A23FB181988F86800230093230000F010
:1006E0009DFC12E0FB685B8D9AB2FB681A85FB6883
:1006F0001B8DDAB280239C040A23FB181988F86842
:1007000000230093230000F089FC7A69396BFB68B1
:10071000180000F001FB031E01D0012381E0FB68FB
:100720005B6A1A78FB681B689A62FB685B6A5A1CF2
:10073000FB685A62FB685B8D9BB2013B9AB2FB6817
:100740005A85FB681B8D013B9AB2FB681A85FB68D2
:100750005B8D9BB2002B3AD0FB681B8D002B36D1F2
:100760003A6BF8687B69009313000022802100F047
:100770007BFA031E01D0012353E0FB685B8D9BB223
:10078000FF2B11D9FB68FF221A85FB681B8DDAB29B
:1007900080235C040A23FB181988F868002300935F
:1007A000230000F03BFC12E0FB685B8D9AB2FB6813
:1007B0001A85FB681B8DDAB280239C040A23FB1880
:1007C0001988F86800230093230000F027FCFB68D9
:1007D0005B8D9BB2002B98D17A69396BFB6818004E
:1007E00000F0E0FA031E01D001231AE0FB681B6849
:1007F0002022DA61FB681B685A68FB681B680B499A
:100800000A405A60FB68412220219954FB68422229
:1008100000219954FB68402200219954002300E0F4
:1008200002231800BD4607B090BDC04600E800FE98
:1008300090B589B002AFF8600C00100019000A23CF
:10084000FB18221C1A800823FB18021C1A80BB1DEF
:100850000A1C1A80FB6841229B5CDBB2202B00D073
:1008600010E1BB6A002B04D02C23FB181B88002B43
:1008700005D1FB68802292005A64012303E1FB68E2
:1008800040229B5C012B01D10223FCE0FB6840224B
:100890000121995401F044FA03007B61802319027D
:1008A000F8687B6900931923012200F0DDF9031E2B
:1008B00001D00123E7E0FB68412222219954FB6823
:1008C000422240219954FB6800225A64FB68BA6AAC
:1008D0005A62FB682C22BA1812885A85FB680022DB
:1008E0005A63BB1D1C880823FB181A880A23FB18AF
:1008F0001988F8687B6901933B6B0093230000F033
:100900002FF9031E05D0FB684022002199540123D2
:10091000B9E0FB685B8D9BB2FF2B11D9FB6801220C
:100920001A85FB681B8DDAB280235C040A23FB184E
:100930001988F868564B0093230000F06FFB12E013
:10094000FB685B8D9AB2FB681A85FB681B8DDAB277
:1009500080239C040A23FB181988F8684C4B0093E9
:10096000230000F05BFB3A6BF8687B69009313008F
:100970000022042100F078F9031E01D0012382E057
:10098000FB681B685A6AFB685B6AD2B21A70FB6824
:100990005B6A5A1CFB685A62FB681B8D013B9AB26A
:1009A000FB681A85FB685B8D9BB2013B9AB2FB68C2
:1009B0005A85FB685B8D9BB2002B3AD0FB681B8D80
:1009C000002B36D13A6BF8687B6900931300002244
:1009D000802100F049F9031E01D0012353E0FB6898
:1009E0005B8D9BB2FF2B11D9FB6801221A85FB6836
:1009F0001B8DDAB280235C040A23FB181988F8687F
:100A000000230093230000F009FB12E0FB685B8DDC
:100A10009AB2FB681A85FB681B8DDAB280239C04AE
:100A20000A23FB181988F86800230093230000F0BC
:100A3000F5FAFB685B8D9BB2002B94D17A69396B18
:100A4000FB68180000F0AEF9031E01D001231AE084
:100A5000FB681B682022DA61FB681B685A68FB6828
:100A60001B680C490A405A60FB68412220219954B6
:100A7000FB68422200219954FB68402200219954CE
:100A8000002300E002231800BD4607B090BDC04619
:100A90000024008000E800FEB0B586B002AFF86028
:100AA0000C00100019000A257B19221C1A8008234B
:100AB000FB18021C1A80BB1D0A1C1A80BB1D1B8858
:100AC000DAB280235C047B191988F868234B009301
:100AD000230000F0A3FA7A6A396AFB68180000F074
:100AE0001BF9031E01D0012333E0BB1D1B88012B22
:100AF00007D10823FB181B88DAB2FB681B689A62CF
:100B000019E00823FB181B881B0A9BB2DAB2FB68AA
:100B10001B689A627A6A396AFB68180000F0FCF870
:100B2000031E01D0012314E00823FB181B88DAB24E
:100B3000FB681B689A623A6AF8687B6A0093130044
:100B40000022802100F090F8031E01D0012300E074
:100B500000231800BD4604B0B0BDC0460020008090
:100B6000B0B586B002AFF8600C00100019000A257D
:100B70007B19221C1A800823FB18021C1A80BB1D3B
:100B80000A1C1A80BB1D1B88DAB27B191988F86809
:100B9000234B0093002300F041FA7A6A396AFB681C
:100BA000180000F0B9F8031E01D0012333E0BB1D8B
:100BB0001B88012B07D10823FB181B88DAB2FB68BE
:100BC0001B689A6219E00823FB181B881B0A9BB25A
:100BD000DAB2FB681B689A627A6A396AFB681800A5
:100BE00000F09AF8031E01D0012314E00823FB183B
:100BF0001B88DAB2FB681B689A623A6AF8687B6AFB
:100C0000009313000022402100F02EF8031E01D0B3
:100C1000012300E000231800BD4604B0B0BDC0466B
:100C20000020008080B582B000AF78607B681B68D0
:100C30009B6902221340022B03D17B681B680022B0
:100C40009A627B681B689B6901221340012B07D0C5
:100C50007B681B689A697B681B6801210A439A615B
:100C6000C046BD4602B080BD80B584B000AFF8601C
:100C7000B9603B60FB1D1A703AE0BA693968FB68DD
:100C8000180000F0D3F8031E01D0012340E03B68B8
:100C900001332DD001F044F80200BB69D31A3A6841
:100CA0009A4202D33B68002B22D1FB681B689B69E8
:100CB000BA681340BA68D31A5A425341DBB21A00D9
:100CC000FB1D1B789A4213D1FB685B6C20221A43F0
:100CD000FB685A64FB68412220219954FB68422238
:100CE00000219954FB6840220021995401230FE010
:100CF000FB681B689B69BA681340BA68D31A5A42EA
:100D00005341DBB21A00FB1D1B789A42B5D0002379
:100D10001800BD4604B080BD80B584B000AFF86057
:100D2000B9607A6032E07A68B968FB68180000F050
:100D30007DF8031E01D0012330E0BB68013325D0CC
:100D400000F0EEFF02007B68D31ABA689A4202D321
:100D5000BB68002B1AD1FB681B689B6902221340F9
:100D6000022B13D0FB685B6C20221A43FB685A6489
:100D7000FB68412220219954FB68422200219954AA
:100D8000FB68402200219954012307E0FB681B689F
:100D90009B6902221340022BC5D100231800BD46D7
:100DA00004B080BD80B584B000AFF860B9607A60EF
:100DB0002FE07A68B968FB68180000F037F8031E66
:100DC00001D001232DE000F0ABFF02007B68D31AB5
:100DD000BA689A4202D3BB68002B1AD1FB681B6821
:100DE0009B6920221340202B13D0FB685B6C2022D0
:100DF0001A43FB685A64FB68412220219954FB681E
:100E0000422200219954FB68402200219954012379
:100E100007E0FB681B689B6920221340202BC8D188
:100E200000231800BD4604B080BD000080B58AB024
:100E300000AFF860B9607A602723FB1800221A70AF
:100E4000FB681B689B69BB6100233B627B68FB619D
:100E5000BB691022134000D179E0FB681B681022A7
:100E6000DA6157E02722BB18BA1812781A70BB68EB
:100E700001334FD000F054FF0200FB69D31ABA6867
:100E80009A4202D3BB68002B44D1FB681B685A68A6
:100E90008023DB0113407B6113203B18FA68422159
:100EA000525C1A70FB681B689A6980231B021A4007
:100EB00080231B029A4226D17A698023DB019A4261
:100EC00021D03B181B78202B1DD0FB681B685A686B
:100ED000FB681B688021C9010A435A6000F020FFAB
:100EE0000300FB610FE000F01BFF0200FB69D31A57
:100EF000192B08D93B6A202213433B622723FB1896
:100F000001221A7006E0FB681B689B6920221340CF
:100F1000202BE8D1FB681B689B6920221340202B03
:100F200004D02723FB181B78002B9BD02723FB180A
:100F30001B78002B03D1FB681B682022DA613B6A17
:100F4000042213433B622723FB1801221A70FB681B
:100F50001B689B69BB61BA6980235B0013400CD09E
:100F60003B6A012213433B62FB681B6880225200EC
:100F7000DA612723FB1801221A70BA698023DB008B
:100F800013400CD03B6A082213433B62FB681B688A
:100F90008022D200DA612723FB1801221A70BA6975
:100FA00080239B0013400CD03B6A022213433B6218
:100FB000FB681B6880229200DA612723FB1801225C
:100FC0001A702723FB181B78002B1DD0FB68180014
:100FD000FFF728FEFB681B685A68FB681B680E4910
:100FE0000A405A60FB685A6C3B6A1A43FB685A64B1
:100FF000FB68412220219954FB6842220021995428
:10100000FB684022002199542723FB181B78180005
:10101000BD460AB080BDC04600E800FE90B587B06E
:1010200000AFF860080011007B600A243B19021C25
:101030001A8009203B180A1C1A703B191B889B0553
:101040009A0D3B181B781904FF231B040B401A430D
:101050007B681A43BB6A13435B005B087B61FB68D8
:101060001B685B68BA6A510D8022D2000A400749AA
:101070000A43D2431A401100FB681B687A690A438D
:101080005A60C046BD4607B090BDC046FF63FF032F
:1010900080B582B000AF786039607B6841229B5C8C
:1010A000DBB2202B38D17B6840229B5C012B01D125
:1010B000022332E07B684022012199547B6841225F
:1010C000242199547B681B681A687B681B6801217E
:1010D0008A431A607B681B681A687B681B68114921
:1010E0000A401A607B681B6819687B681B683A684D
:1010F0000A431A607B681B681A687B681B680121B9
:101100000A431A607B684122202199547B6840225F
:1011100000219954002300E002231800BD4602B0CC
:1011200080BDC046FFEFFFFF80B584B000AF7860A0
:1011300039607B6841229B5CDBB2202B39D17B6814
:1011400040229B5C012B01D1022333E07B684022CB
:10115000012199547B684122242199547B681B68A2
:101160001A687B681B6801218A431A607B681B68C8
:101170001B68FB60FB68114A1340FB603B681B0265
:10118000FA681343FB607B681B68FA681A607B6827
:101190001B681A687B681B6801210A431A607B6818
:1011A0004122202199547B68402200219954002338
:1011B00000E002231800BD4604B080BDFFF0FFFF31
:1011C00080B588B000AF78607B68002B01D1012327
:1011D00001E37B681B680122134000D18DE0C34B03
:1011E0005B680C221340042B0ED0C04B5B680C22B2
:1011F0001340082B16D1BD4B5A6880235B021A405E
:1012000080235B029A420DD1B84B1A6880239B025F
:10121000134000D170E07B685B68002B00D06BE06E
:101220000123D8E27B685B68012B07D1AF4B1A68BA
:10123000AE4B802149020A431A602FE07B685B684D
:10124000002B0CD1A94B1A68A84BA9490A401A6077
:10125000A64B1A68A54BA7490A401A601EE07B6896
:101260005B68052B0ED1A14B1A68A04B8021C902E7
:101270000A431A609D4B1A689C4B802149020A431D
:101280001A600BE0994B1A68984B99490A401A600A
:10129000964B1A68954B97490A401A607B685B68C1
:1012A000002B14D000F03CFD0300BB6108E000F00F
:1012B00037FD0200BB69D31A642B01D903238AE2EC
:1012C0008A4B1A6880239B021340F0D015E000F08F
:1012D00027FD0300BB6108E000F022FD0200BB69AE
:1012E000D31A642B01D9032375E2804B1A6880233B
:1012F0009B021340F0D100E0C0467B681B680222CD
:10130000134000D169E0794B5B680C2213400BD08D
:10131000764B5B680C221340082B1CD1734B5A6828
:1013200080235B02134016D1704B1B6802221340CE
:1013300005D07B68DB68012B01D001234BE26B4BAE
:101340001B68F822934319007B681B69DA00674B1E
:101350000A431A6041E07B68DB68002B24D0634BB2
:101360001A68624B01210A431A6000F0D9FC03009D
:10137000BB6108E000F0D4FC0200BB69D31A022B69
:1013800001D9032327E2594B1B6802221340F1D0F5
:10139000564B1B68F822934319007B681B69DA00DF
:1013A000524B0A431A6018E0504B1A684F4B012108
:1013B0008A431A6000F0B4FC0300BB6108E000F04F
:1013C000AFFC0200BB69D31A022B01D9032302E24E
:1013D000464B1B6802221340F1D17B681B68082230
:1013E000134036D07B68DB69002B19D03F4B5A6A1B
:1013F0003E4B01210A435A6200F092FC0300BB619C
:1014000008E000F08DFC0200BB69D31A022B01D961
:101410000323E0E1354B5B6A02221340F1D018E070
:10142000324B5A6A314B01218A435A6200F078FCF0
:101430000300BB6108E000F073FC0200BB69D31A33
:10144000022B01D90323C6E1284B5B6A0222134019
:10145000F1D17B681B680422134000D1B4E01F2047
:101460003B1800221A70214BDA6980235B05134078
:1014700010D11E4BDA691D4B802149050A43DA6100
:101480001A4BDA6980235B051340FB60FB683B184D
:1014900001221A70184B1A6880235B0013401AD17E
:1014A000154B1A68144B802149000A431A6000F05A
:1014B00037FC0300BB6108E000F032FC0200BB69AE
:1014C000D31A642B01D9032385E10B4B1A688023BF
:1014D0005B001340F0D07B689B68012B0ED1034B5F
:1014E0001A6A024B01210A431A6235E000100240D9
:1014F000FFFFFEFFFFFFFBFF007000407B689B6863
:10150000002B0CD1B64B1A6AB54B01218A431A62E3
:10151000B34B1A6AB24B04218A431A621CE07B68FF
:101520009B68052B0CD1AE4B1A6AAD4B04210A43C4
:101530001A62AB4B1A6AAA4B01210A431A620BE0EA
:10154000A74B1A6AA64B01218A431A62A44B1A6A56
:10155000A34B04218A431A627B689B68002B14D03A
:1015600000F0DEFB0300BB6109E000F0D9FB0200E4
:10157000BB69D31A9B4A934201D903232BE1984BB1
:101580001B6A02221340F0D013E000F0C9FB0300F5
:10159000BB6109E000F0C4FB0200BB69D31A914AA9
:1015A000934201D9032316E18D4B1B6A022213409B
:1015B000F0D11F23FB181B78012B05D1884BDA696A
:1015C000874B89490A40DA617B681B681022134007
:1015D00063D07B685B69012B2AD1814B5A6B804BAE
:1015E00004210A435A637E4B5A6B7D4B01210A4307
:1015F0005A6300F095FB0300BB6108E000F090FB2C
:101600000200BB69D31A022B01D90323E3E0744B18
:101610005B6B02221340F1D0714B5B6BF82293435A
:1016200019007B689B69DA006D4B0A435A6334E00A
:101630007B685B69053311D1694B5A6B684B042198
:101640008A435A63664B5B6BF822934319007B68AD
:101650009B69DA00624B0A435A631EE0604B5A6B87
:101660005F4B04210A435A635D4B5A6B5C4B01216B
:101670008A435A6300F054FB0300BB6108E000F0AA
:101680004FFB0200BB69D31A022B01D90323A2E04E
:10169000534B5B6B02221340F1D17B681B6A002B1A
:1016A00000D197E04E4B5B680C221340082B00D111
:1016B0006BE07B681B6A022B4CD1494B1A68484B84
:1016C0004A490A401A6000F02BFB0300BB6108E0A6
:1016D00000F026FB0200BB69D31A022B01D90323B9
:1016E00079E03F4B1A6880239B041340F0D13C4BB8
:1016F000DB6A0F22934319007B68DA6A384B0A438E
:10170000DA62374B5B683A4A134019007B689A6A81
:101710007B685B6A1A43324B0A435A60304B1A6843
:101720002F4B802149040A431A6000F0F9FA0300A4
:10173000BB6108E000F0F4FA0200BB69D31A022B87
:1017400001D9032347E0264B1A6880239B041340EA
:10175000F0D03FE0224B1A68214B24490A401A601E
:1017600000F0DEFA0300BB6108E000F0D9FA0200E5
:10177000BB69D31A022B01D903232CE0184B1A683A
:1017800080239B041340F0D124E07B681B6A012B6B
:1017900001D101231FE0124B5B687B61104BDB6AB8
:1017A0003B617A6980235B021A407B685B6A9A42DC
:1017B0000ED13B690F221A407B68DB6A9A4207D13F
:1017C0007A69F0239B031A407B689B6A9A4201D096
:1017D000012300E000231800BD4608B080BDC046CC
:1017E0000010024088130000FFFFFFEFFFFFFFFE25
:1017F000FFFFC2FF80B584B000AF786039607B68BE
:10180000002B01D10123B3E05B4B1B680122134085
:101810003A689A4211D9584B1B6801229343190028
:10182000554B3A680A431A60534B1B680122134018
:101830003A689A4201D001239AE07B681B68022231
:10184000134015D07B681B680422134006D04B4B15
:101850005A684A4BE021C9000A435A60474B5B680B
:10186000F022934319007B689A68444B0A435A60FC
:101870007B681B680122134040D07B685B68012BAA
:1018800007D13E4B1A6880239B02134014D10123D9
:101890006EE07B685B68022B07D1384B1A688023A7
:1018A0009B04134008D1012362E0344B1B680222E1
:1018B000134001D101235BE0304B5B68032293436B
:1018C00019007B685A682D4B0A435A6000F028FAC9
:1018D0000300FB6009E000F023FA0200FB68D31A62
:1018E000274A934201D9032342E0244B5B680C2230
:1018F0001A407B685B689B009A42ECD11E4B1B68C8
:10190000012213403A689A4211D21B4B1B680122F4
:1019100093431900184B3A680A431A60164B1B6828
:10192000012213403A689A4201D0012320E07B68EB
:101930001B680422134009D0104B5B68114A134006
:1019400019007B68DA680D4B0A435A6000F020F8F2
:1019500001000A4B5B681B090F2213400A4AD35C43
:101960000A00DA40094B1A60032000F093F90023C3
:101970001800BD4604B080BD0020024000100240A7
:1019800088130000FFF8FFFFC87400080000002063
:1019900080B586B000AF0023FB600023BB6000234E
:1019A0007B6100237B6000233B61204B5B68FB6015
:1019B000FB680C221340042B02D0082B03D02CE030
:1019C0001B4B3B612CE0FB689B0C0F221340194A18
:1019D000D35C7B60154BDB6A0F221340164AD35C45
:1019E000BB60FA6880235B02134009D0B9681048D5
:1019F000FEF766FB03001A007B6853437B6109E036
:101A000079680A005201521A93019B1ADB005B1895
:101A10001B027B617B693B6102E0054B3B61C04679
:101A20003B691800BD4606B080BDC04600100240AC
:101A300000127A00E0740008F074000880B500AF6E
:101A4000024B1B681800BD4680BDC0460000002048
:101A500080B500AFFFF7F2FF0100064B5B681B0A81
:101A600007221340044AD35CD9400B001800BD463E
:101A700080BDC04600100240D874000880B582B016
:101A800000AF786039607B6807221A600E4B5B6894
:101A900003221A407B685A600B4B5B68F0221A40A5
:101AA0007B689A60084B5A68E023DB001A407B6829
:101AB000DA60064B1B6801221A403B681A60C04678
:101AC000BD4602B080BDC04600100240002002406A
:101AD00080B586B000AF786000233B610023FB60D7
:101AE0007B681A6880235B02134000D18EE01720C8
:101AF0003B1800221A70574BDA6980235B051340AC
:101B000010D1544BDA69534B802149050A43DA61FD
:101B1000504BDA6980235B051340BB60BB683B1800
:101B200001221A704C4B1A6880235B0013401AD1B3
:101B3000494B1A68484B802149000A431A6000F05B
:101B4000EFF803003B6108E000F0EAF802003B69AF
:101B5000D31A642B01D9032377E03F4B1A68802303
:101B60005B001340F0D03B4B1A6AC0239B0013402C
:101B7000FB60FB68002B34D07B685A68C0239B0055
:101B80001340FA689A422CD0324B1B6A334A1340F6
:101B9000FB60304B1A6A2F4B802149020A431A62BC
:101BA0002C4B1A6A2B4B2E490A401A62294BFA68B1
:101BB0001A62FB680122134013D000F0B1F8030051
:101BC0003B6109E000F0ACF802003B69D31A254AFA
:101BD000934201D9032338E01E4B1B6A02221340B3
:101BE000F0D01C4B1B6A1D4A134019007B685A68D1
:101BF000184B0A431A621723FB181B78012B05D1D7
:101C0000144BDA69134B18490A40DA617B681B6888
:101C10000122134009D00F4B1B6B03229343190081
:101C20007B689A680B4B0A431A637B681B68202207
:101C3000134009D0074B1B6B1022934319007B689C
:101C4000DA68044B0A431A6300231800BD4606B045
:101C500080BDC0460010024000700040FFFCFFFF46
:101C6000FFFFFEFF88130000FFFFFFEF80B500AF0E
:101C7000074B1A68064B10210A431A60032000F034
:101C800009F801F0ABFE00231800BD4680BDC04638
:101C90000020024090B583B000AF7860144B1C6800
:101CA000144B1B781900FA239800FEF709FA030079
:101CB00019002000FEF704FA0300180000F08BFA68
:101CC000031E01D001230FE07B68032B0BD879683A
:101CD00001235B420022180000F068FA064B7A6884
:101CE0001A60002300E001231800BD4603B090BD38
:101CF00000000020080000200400002080B500AF94
:101D0000054B1B781A00054B1B68D218034B1A6051
:101D1000C046BD4680BDC046080000202800002007
:101D200080B500AF024B1B681800BD4680BDC046A1
:101D30002800002080B586B000AF786039600023AD
:101D40007B614FE13B681B6801217A6991400A0081
:101D50001340FB60FB68002B00D140E13B685B68EF
:101D600003221340012B05D03B685B68032213401C
:101D7000022B30D17B689B683B617B695B0003224F
:101D80009A401300DA433B6913403B613B68DA68D1
:101D90007B695B009A4013003A6913433B617B689F
:101DA0003A699A607B685B683B6101227B699A4073
:101DB0001300DA433B6913403B613B685B681B09D6
:101DC00001221A407B699A4013003A6913433B6130
:101DD0007B683A695A603B685B6803221340032BB7
:101DE00017D07B68DB683B617B695B0003229A400C
:101DF0001300DA433B6913403B613B689A687B6997
:101E00005B009A4013003A6913433B617B683A696F
:101E1000DA603B685B6803221340022B23D17B69A5
:101E2000DA087B6808329200D3583B617B6907224D
:101E300013409B000F229A401300DA433B69134082
:101E40003B613B681A697B6907210B409B009A4004
:101E500013003A6913433B617B69DA087B680832F7
:101E600092003969D1507B681B683B617B695B00DC
:101E700003229A401300DA433B6913403B613B68FD
:101E80005B6803221A407B695B009A4013003A6941
:101E900013433B617B683A691A603B685A68C02308
:101EA0009B02134000D19AE0544B9A69534B012195
:101EB0000A439A61514B9B6901221340BB60BB6886
:101EC0004F4A7B699B0802339B009B583B617B69AF
:101ED000032213409B000F229A401300DA433B6910
:101EE00013403B617A689023DB059A4213D07B68EC
:101EF000444A93420DD07B68434A934207D07B68A3
:101F0000424A934201D1032306E0052304E0022361
:101F100002E0012300E000237A6903210A409200D5
:101F200093403A6913433B6135497B699B0802330F
:101F30009B003A695A50364B9B683B61FB68DA4319
:101F40003B6913403B613B685A6880235B03134045
:101F500003D03A69FB6813433B612D4B3A699A60A1
:101F60002B4BDB683B61FB68DA433B6913403B6109
:101F70003B685A6880239B03134003D03A69FB688F
:101F800013433B61224B3A69DA60214B5B683B614A
:101F9000FB68DA433B6913403B613B685A68802326
:101FA0009B02134003D03A69FB6813433B61184B13
:101FB0003A695A60164B1B683B61FB68DA433B6920
:101FC00013403B613B685A6880235B02134003D097
:101FD0003A69FB6813433B610D4B3A691A607B69B0
:101FE00001337B613B681A687B69DA40131E00D0BD
:101FF000A8E6C046C046BD4606B080BD00100240FF
:10200000000001400004004800080048000C00489F
:102010000004014080B584B000AF78600A00BB1CAA
:102020001A807B681B69BA1C1288134004D00F23E6
:10203000FB1801221A7003E00F23FB1800221A700C
:102040000F23FB181B781800BD4604B080BD80B577
:1020500082B000AF786008001100BB1C021C1A801F
:102060007B1C0A1C1A707B1C1B78002B04D0BB1C29
:102070001A887B689A6103E0BB1C1A887B689A62A5
:10208000C046BD4602B080BD90B583B000AF02002F
:102090003960FB1D1A70FB1D1B787F2B28D82F4A37
:1020A000FB1D1B785BB29B08C0339B009B58FA1D3D
:1020B0001278110003220A40D200FF2191400A0049
:1020C000D2431A4011003B689B01FF221A40FB1DBE
:1020D0001B78180003230340DB009A401F48FB1DB8
:1020E0001B785BB29B080A43C0339B001A5031E057
:1020F0001B4AFB1D1B7819000F230B40083B9B0854
:1021000006339B00D31804331B68FA1D12781100A4
:1021100003220A40D200FF2191400A00D2431A4014
:1021200011003B689B01FF221A40FB1D1B78180021
:1021300003230340DB009A400948FB1D1B781C0069
:102140000F232340083B9B080A4306339B00C31818
:1021500004331A60C046BD4603B090BD00E100E004
:1021600000ED00E080B582B000AF78607B685A1E59
:1021700080235B049A4201D3012310E00A4B7A6862
:10218000013A5A6001235B4203211800FFF77CFFEC
:10219000054B00229A60044B07221A6000231800A6
:1021A000BD4602B080BDC04610E000E080B584B0FE
:1021B00000AFB9607A600F217B18021C1A70BA68F0
:1021C0007B181B785BB211001800FFF75DFFC0465B
:1021D000BD4604B080BD80B582B000AF78607B683A
:1021E0001800FFF7BFFF03001800BD4602B080BD16
:1021F00080B584B000AF78607B68002B01D10123EB
:10220000A8E07B685B6A002B09D17B685A6882234F
:102210005B009A4209D07B680022DA6105E07B68A6
:1022200000221A617B6800225A617B6800229A6250
:102230007B685D229B5CDBB2002B07D17B685C2254
:10224000002199547B68180001F0A2FA7B685D2296
:10225000022199547B681B681A687B681B684021BF
:102260008A431A607B68DA68E023DB009A4202D96D
:102270000023FB6002E080235B01FB607B68DA687F
:10228000F0231B019A4208D07B68DA68E023DB0068
:102290009A4202D07B6800229A627B685A68822345
:1022A0005B001A407B68996884231B020B401A4329
:1022B0007B681B6902210B401A437B685B69012123
:1022C0000B401A437B68996980239B000B401A439B
:1022D0007B68DB6938210B401A437B681B6A8021CD
:1022E0000B401A4311007B689A6A80239B011A40B5
:1022F0007B681B680A431A607B689B691B0C04227D
:102300001A407B685B6A10210B401A437B685B6B49
:1023100008210B401A437B68D968F0231B010B404E
:102320001A431100FA6880235B011A407B681B681E
:102330000A435A607B681B68DA697B681B68074937
:102340000A40DA617B6800221A667B685D220121FF
:10235000995400231800BD4604B080BDFFF7FFFF6D
:1023600080B588B000AFF860B9603B60BB1D1A80D3
:102370001F23FB1800221A70FB685C229B5C012B58
:1023800001D1022347E1FB685C2201219954FFF748
:10239000C7FC0300BB611623FB18BA1D12881A8004
:1023A000FB685D229B5CDBB2012B04D01F23FB1872
:1023B00002221A7028E1BB68002B03D0BB1D1B88CA
:1023C000002B04D11F23FB1801221A701CE1FB68AB
:1023D0005D2203219954FB6800221A66FB68BA68E3
:1023E0009A63FB68BA1D12889A87FB68BA1D128827
:1023F000DA87FB6800221A64FB68442200219952A4
:10240000FB68462200219952FB6800221A65FB688E
:102410000022DA64FB689A6880231B029A4210D17A
:10242000FB681B681A68FB681B6840218A431A60B6
:10243000FB681B681A68FB681B688021C9010A4396
:102440001A60FB681B681B6840221340402B07D0B2
:10245000FB681B681A68FB681B6840210A431A6006
:10246000FB68DA68E023DB009A4252D9FB685B68BC
:10247000002B04D01623FB181B88012B43D1FB68CB
:102480009B6B1A88FB681B68DA60FB689B6B9A1C65
:10249000FB689A63FB68DB8F9BB2013B9AB2FB68D7
:1024A000DA8730E0FB681B689B6802221340022B2E
:1024B00012D1FB689B6B1A88FB681B68DA60FB68AB
:1024C0009B6B9A1CFB689A63FB68DB8F9BB2013B9A
:1024D0009AB2FB68DA8716E0FFF722FC0200BB69BC
:1024E000D31A3A689A4202D83B68013302D13B685A
:1024F000002B08D11F23FB1803221A70FB685D22F2
:102500000121995480E0FB68DB8F9BB2002BC9D17D
:1025100053E0FB685B68002B04D01623FB181B8874
:10252000012B45D1FB689A6BFB681B680C33127852
:102530001A70FB689B6B5A1CFB689A63FB68DB8F05
:102540009BB2013B9AB2FB68DA8731E0FB681B68FB
:102550009B6802221340022B13D1FB689A6BFB6825
:102560001B680C3312781A70FB689B6B5A1CFB6853
:102570009A63FB68DB8F9BB2013B9AB2FB68DA87F8
:1025800016E0FFF7CDFB0200BB69D31A3A689A4206
:1025900002D83B68013302D13B68002B08D11F23CE
:1025A000FB1803221A70FB685D22012199542BE06D
:1025B000FB68DB8F9BB2002BC8D1BA693968FB6816
:1025C000180000F05DF9031E02D0FB6820221A6695
:1025D000FB689B68002B0AD100233B61FB681B68EA
:1025E000DB683B61FB681B689B683B613B69FB6880
:1025F0001B6E002B04D01F23FB1801221A7003E06E
:10260000FB685D2201219954FB685C2200219954EA
:102610001F23FB181B781800BD4608B080BD0000C2
:1026200080B588B000AFF860B9603B60FB1D1A70E0
:10263000FFF776FB0200BB6A9B1A3A68D318FB616E
:10264000FFF76EFB0300BB613A4B1B685B011B0D80
:10265000FA6953437B6158E03B68013355D0FFF77B
:102660005FFB0200BB69D31AFA699A4202D9FB697F
:10267000002B42D1FB681B685A68FB681B68E0218D
:102680008A435A60FB685A6882235B009A4213D1DE
:10269000FB689A6880231B029A4205D0FB689A68FF
:1026A0008023DB009A4207D1FB681B681A68FB682D
:1026B0001B6840218A431A60FB689A6A80239B0149
:1026C0009A4210D1FB681B681A68FB681B681A499C
:1026D0000A401A60FB681B681A68FB681B68802147
:1026E00089010A431A60FB685D2201219954FB6845
:1026F0005C2200219954032317E07B69002B01D150
:102700000023FB617B69013B7B61FB681B689B6865
:10271000BA681340BA68D31A5A425341DBB21A005E
:10272000FB1D1B789A4297D100231800BD4608B0C4
:1027300080BDC04600000020FFDFFFFF80B58AB0EB
:1027400000AFF860B9607A603B601723FB18002285
:102750001A70FFF7E5FA02003B6B9B1A3A68D31830
:102760007B62FFF7DDFA03003B62FB681B680C33FA
:10277000FB61414B1A6813009B009B18DA00D31AC7
:102780001B0D7A6A5343BB6168E0BA68C023DB0063
:102790009A420AD17B68002B07D1FB691B78DAB219
:1027A00017217B181A707B181B783B68013355D0B2
:1027B000FFF7B6FA02003B6AD31A7A6A9A4202D944
:1027C0007B6A002B42D1FB681B685A68FB681B6858
:1027D000E0218A435A60FB685A6882235B009A4270
:1027E00013D1FB689A6880231B029A4205D0FB68CC
:1027F0009A688023DB009A4207D1FB681B681A683D
:10280000FB681B6840218A431A60FB689A6A802330
:102810009B019A4210D1FB681B681A68FB681B6811
:1028200016490A401A60FB681B681A68FB681B6837
:10283000802189010A431A60FB685D2201219954B5
:10284000FB685C2200219954032310E0BB69002B34
:1028500001D100237B62BB69013BBB61FB681B6844
:102860009B68BA6813407A689A428ED10023180098
:10287000BD460AB080BDC04600000020FFDFFFFF5C
:1028800080B586B002AFF860B9607A60BA68C023DC
:102890005901F8687B68009313000022FFF74EFF90
:1028A000031E07D0FB681B6E20221A43FB681A66C2
:1028B000032327E0BA68F8687B68009313000022BE
:1028C0008021FFF7ADFE031E07D0FB681B6E2022A0
:1028D0001A43FB681A66032314E0BA68C023D900C0
:1028E000F8687B68009313000022FFF727FF031EA0
:1028F00007D0FB681B6E20221A43FB681A6603236D
:1029000000E000231800BD4604B080BD80B582B051
:1029100000AF78607B68002B01D1012342E07B6827
:102920003D229B5CDBB2002B07D17B683C2200215F
:1029300099547B68180000F0D9FF7B683D22022182
:1029400099547B681A687B6804331900100000F002
:1029500047FA7B684622012199547B683E22012177
:1029600099547B683F22012199547B6840220121C0
:1029700099547B684122012199547B6842220121AC
:1029800099547B684322012199547B684422012198
:1029900099547B684522012199547B683D2201218D
:1029A000995400231800BD4602B080BD80B584B0A4
:1029B00000AF786039603B68002B08D17B683E220D
:1029C0009B5CDBB2013B5A1E9341DBB21FE03B68CC
:1029D000042B08D17B683F229B5CDBB2013B5A1E73
:1029E0009341DBB213E03B68082B08D17B6840229F
:1029F0009B5CDBB2013B5A1E9341DBB207E07B6874
:102A000041229B5CDBB2013B5A1E9341DBB2002B9F
:102A100001D001236EE03B68002B04D17B683E228D
:102A20000221995413E03B68042B04D17B683F22B8
:102A3000022199540BE03B68082B04D17B684022AB
:102A40000221995403E07B684122022199547B685A
:102A50001B6839680122180000F042FC7B681B6883
:102A6000264A93420ED07B681B68254A934209D0C0
:102A70007B681B68234A934204D07B681B68224A08
:102A8000934201D1012300E00023002B08D07B6892
:102A90001B685A6C7B681B68802109020A435A64D0
:102AA0007B681B68154A934209D07B681B68174AEC
:102AB000934204D07B681B68114A934211D17B6812
:102AC0001B689B6807221340FB60FB68062B10D035
:102AD0007B681B681A687B681B6801210A431A60BF
:102AE00007E07B681B681A687B681B6801210A4342
:102AF0001A6000231800BD4604B080BD002C0140C0
:102B000000400140004401400048014000040040F2
:102B100080B582B000AF786039607B681B68396827
:102B20000022180000F0DCFB7B681B682F4A9342F0
:102B30000ED07B681B682E4A934209D07B681B68C5
:102B40002C4A934204D07B681B682B4A934201D1E4
:102B5000012300E00023002B13D07B681B681B6A55
:102B6000264A13400DD17B681B681B6A244A134018
:102B700007D17B681B685A6C7B681B6821490A4037
:102B80005A647B681B681B6A1C4A13400DD17B6822
:102B90001B681B6A1A4A134007D17B681B681A68B6
:102BA0007B681B6801218A431A603B68002B04D1B3
:102BB0007B683E220121995413E03B68042B04D129
:102BC0007B683F22012199540BE03B68082B04D11C
:102BD0007B6840220121995403E07B684122012156
:102BE000995400231800BD4602B080BD002C01405E
:102BF0000040014000440140004801401111000024
:102C000044040000FF7FFFFF80B586B000AFF8608E
:102C1000B9607A601723FB1800221A70FB683C2207
:102C20009B5C012B01D10223ADE0FB683C2201211A
:102C300099547B680C2B00D176E07B680C2B00D973
:102C400095E07B68082B4ED07B68082B00D98EE07E
:102C50007B68002B03D07B68042B21D087E0FB68C6
:102C60001B68BA681100180000F03EF9FB681B6889
:102C70009A69FB681B6808210A439A61FB681B6814
:102C80009A69FB681B6804218A439A61FB681B6888
:102C90009969BB681A69FB681B680A439A616BE013
:102CA000FB681B68BA681100180000F0A5F9FB6802
:102CB0001B689A69FB681B68802109010A439A61B5
:102CC000FB681B689A69FB681B6831490A409A6176
:102CD000FB681B689969BB681B691A02FB681B6863
:102CE0000A439A6148E0FB681B68BA681100180043
:102CF00000F006FAFB681B68DA69FB681B680821AC
:102D00000A43DA61FB681B68DA69FB681B68042107
:102D10008A43DA61FB681B68D969BB681A69FB687A
:102D20001B680A43DA6127E0FB681B68BA68110078
:102D3000180000F06BFAFB681B68DA69FB681B6817
:102D4000802109010A43DA61FB681B68DA69FB68C4
:102D50001B680F490A40DA61FB681B68D969BB68C8
:102D60001B691A02FB681B680A43DA6104E0172337
:102D7000FB1801221A70C046FB683C2200219954BE
:102D80001723FB181B781800BD4606B080BDC0464F
:102D9000FFFBFFFF80B582B000AF786039607B68D1
:102DA0003C229B5C012B01D1022314E07B683C2276
:102DB000012199547B683D22022199547B681B684C
:102DC0003A685A617B683D22012199547B683C2214
:102DD0000021995400231800BD4602B080BD0000B8
:102DE00080B584B000AF786039607B681B68FB6099
:102DF0007B68364A934203D07B68354A934208D1B8
:102E0000FB6870229343FB603B685B68FA6813437E
:102E1000FB607B682D4A934213D07B682C4A934217
:102E20000FD07B682B4A93420BD07B682A4A93428F
:102E300007D07B68294A934203D07B68284A934293
:102E400008D1FB68274A1340FB603B68DB68FA68DF
:102E50001343FB60FB68802293431A003B685B6965
:102E60001343FB607B68FA681A603B689A687B686A
:102E7000DA623B681A687B689A627B68134A9342FD
:102E80000BD07B68144A934207D07B68134A934265
:102E900003D07B68124A934203D13B681A697B686E
:102EA0001A637B6801225A617B681B690122134007
:102EB000012B06D17B681B69012293431A007B68B2
:102EC0001A61C046BD4604B080BDC046002C01401A
:102ED0000004004000200040004001400044014048
:102EE00000480140FFFCFFFF80B586B000AF78606E
:102EF00039607B681B6A7B617B681B6A0122934394
:102F00001A007B681A627B685B683B617B689B691F
:102F1000FB60FB6870229343FB60FB6803229343D2
:102F2000FB603B681B68FA681343FB607B69022205
:102F300093437B613B689B687A6913437B617B6841
:102F4000274A93420BD07B68264A934207D07B687E
:102F5000254A934203D07B68244A93420CD17B6973
:102F6000082293437B613B68DB687A6913437B618A
:102F70007B69042293437B617B68194A93420BD09F
:102F80007B68184A934207D07B68174A934203D064
:102F90007B68164A934211D13B69154A13403B6145
:102FA0003B69144A13403B613B685B693A691343D0
:102FB0003B613B689B693A6913433B617B683A69B3
:102FC0005A607B68FA689A613B685A687B685A6302
:102FD0007B687A691A62C046BD4606B080BDC046AD
:102FE000002C0140004001400044014000480140E5
:102FF000FFFEFFFFFFFDFFFF80B586B000AF7860EA
:1030000039607B681B6A7B617B681B6A1022934373
:103010001A007B681A627B685B683B617B689B690E
:10302000FB60FB682E4A1340FB60FB682D4A13408F
:10303000FB603B681B681B02FA681343FB607B69FB
:10304000202293437B613B689B681B017A69134391
:103050007B617B68244A93420DD17B698022934334
:103060007B613B68DB681B017A6913437B617B6989
:10307000402293437B617B681B4A93420BD07B6861
:103080001A4A934207D07B68194A934203D07B685F
:10309000184A934213D13B69174A13403B613B697D
:1030A000164A13403B613B685B699B003A691343D6
:1030B0003B613B689B699B003A6913433B617B68BA
:1030C0003A695A607B68FA689A613B685A687B681B
:1030D0009A637B687A691A62C046BD4606B080BDB5
:1030E000FF8FFFFFFFFCFFFF002C0140004001406D
:1030F0000044014000480140FFFBFFFFFFF7FFFFD6
:1031000080B586B000AF786039607B681B6A7B61F0
:103110007B681B6A334A1A407B681A627B685B686B
:103120003B617B68DB69FB60FB6870229343FB605B
:10313000FB6803229343FB603B681B68FA681343F8
:10314000FB607B69284A13407B613B689B681B02DC
:103150007A6913437B617B68244A93420DD17B6972
:10316000234A13407B613B68DB681B027A69134387
:103170007B617B691F4A13407B617B681B4A9342DA
:103180000BD07B681C4A934207D07B681B4A934252
:1031900003D07B681A4A934213D13B69194A134002
:1031A0003B613B69184A13403B613B685B691B010B
:1031B0003A6913433B613B689B691B013A691343BE
:1031C0003B617B683A695A607B68FA68DA613B6800
:1031D0005A687B68DA637B687A691A62C046BD46C2
:1031E00006B080BDFFFEFFFFFFFDFFFF002C01408A
:1031F000FFF7FFFFFFFBFFFF0040014000440140DD
:1032000000480140FFEFFFFFFFDFFFFF80B586B002
:1032100000AF786039607B681B6A3B617B681B6A22
:10322000264A1A407B681A627B685B687B617B6810
:10323000DB69FB60FB68224A1340FB60FB68214AA4
:103240001340FB603B681B681B02FA681343FB607A
:103250003B691D4A13403B613B689B681B033A690D
:1032600013433B617B68194A93420BD07B68184A31
:10327000934207D07B68174A934203D07B68164A73
:10328000934209D17B69154A13407B613B685B69B6
:103290009B017A6913437B617B687A695A607B681A
:1032A000FA68DA613B685A687B681A647B683A6935
:1032B0001A62C046BD4606B080BDC046FFEFFFFFA4
:1032C000FF8FFFFFFFFCFFFFFFDFFFFF002C014030
:1032D000004001400044014000480140FFBFFFFFA3
:1032E00080B586B000AFF860B9607A60BB681F2215
:1032F000134001229A4013007B61FB681B6A7A69C4
:10330000D2431A40FB681A62FB681A6ABB681F2125
:103310000B40796899400B001A43FB681A62C0465B
:10332000BD4606B080BD000080B584B000AF7860B7
:1033300039607B683C229B5C012B01D1022341E078
:103340007B683C22012199547B683D2202219954DB
:103350007B681B685B68FB607B681B689B68BB6065
:10336000FB6870229343FB603B681B68FA68134359
:10337000FB607B681B68FA685A607B681B68134AAD
:10338000934209D07B681B68114A934204D07B6842
:103390001B68104A93420CD1BB6880229343BB60E8
:1033A0003B685B68BA681343BB607B681B68BA689C
:1033B0009A607B683D22012199547B683C22002160
:1033C000995400231800BD4604B080BD002C014074
:1033D000000400400040014080B582B000AFFEF71D
:1033E00045FC00F036F800F09FF800F003F900F01B
:1033F0008FF900F019FAFEF793FC03007B607B68FD
:10340000180001F07FF87B68180001F0F3FD01F06F
:10341000E7FF01F0F5F97B68180002F05FFEFEF7A8
:103420007FFC03007B607B68180001F0D1F87B68AB
:10343000180001F019FE7B68180002F011F87B6893
:10344000180002F07DFE7B68180001F039FAC046D2
:10345000E5E790B595B000AF20243B191800302364
:103460001A000021FCF76EFF1023FB181800102330
:103470001A000021FCF766FF3B00180010231A0019
:103480000021FCF75FFF21007B1803221A607B18E4
:1034900001225A607B180122DA607B1810221A611F
:1034A0007B1802221A627B18802252025A627B1811
:1034B000802252039A627B180022DA627B1818007D
:1034C000FDF77EFE031E01D000F028F810217B18C6
:1034D00007221A607B1802225A607B1800229A6029
:1034E0007B180022DA607B1801211800FEF782F9B0
:1034F000031E01D000F012F83B0020221A603B00AE
:103500000022DA603B001800FEF7E2FA031E01D049
:1035100000F004F8C046BD4615B090BD80B500AFC0
:1035200072B6C046C046FDE790B589B000AF0C2426
:103530003B19180014231A000021FCF703FF2C4B41
:103540005A692B4B8021C9030A435A61284B5A6997
:103550008023DB031340BB60BB68254B5A69244BB7
:10356000802189020A435A61214B5A6980239B02B8
:1035700013407B607B681E4B5A691D4B8021C9023A
:103580000A435A611A4B5A698023DB0213403B609D
:103590003B689023DB05012210211800FEF757FD40
:1035A0003B1903221A603B1900225A603B19012281
:1035B0009A603A199023DB0511001800FEF7BAFB58
:1035C00021007B1810221A607B1801225A607B1898
:1035D00000229A607B180022DA607A189023DB05BB
:1035E00011001800FEF7A6FBC046BD4609B090BD0D
:1035F0000010024080B500AF1B4B1C4A1A601A4BEA
:103600001B4A5A60184B00229A60174B0122DA605D
:10361000154B00221A61144B00225A61124B0022F2
:103620009A61114B0022DA610F4B00221A620E4B95
:103630001800FCF729FF031E01D0FFF76FFF0A4BAC
:1036400000211800FDF724FD031E01D0FFF766FFDF
:10365000054B00211800FDF767FD031E01D0FFF7A1
:103660005DFFC046BD4680BD2C00002000540040D8
:103670002B1D200090B58BB000AF786014243B194F
:10368000180014231A000021FCF75CFE7B681B68FD
:103690001C4A934231D11C4B5A691B4B8021C902F1
:1036A0000A435A61184B5A698023DB0213403B617D
:1036B0003B6921007B18C0221A607B1812225A60D5
:1036C0007B1800229A607B180322DA607B180122A3
:1036D0001A617B180D4A19001000FEF72BFB0A4BEC
:1036E000DA69094B802189030A43DA61064BDA69FA
:1036F00080239B031340FB60FB68C046BD460BB0B4
:1037000090BDC04600540040001002400004004834
:1037100080B500AF1C4B1D4A1A601B4B8222520021
:103720005A60194B802212029A60174BE022D20095
:10373000DA60154B00221A61134B00225A61124BBA
:10374000802292009A61104B3022DA610E4B0022E7
:103750001A620D4B00225A620B4B00229A620A4BEE
:103760000722DA62084B00221A63074B08225A63C9
:10377000054B1800FEF73CFD031E01D0FFF7CEFEFF
:10378000C046BD4680BDC0468000002000300140DC
:1037900090B58BB000AF786014243B191800142347
:1037A0001A000021FCF7CEFD7B681B681C4A93427F
:1037B00032D11C4B9A691B4B802149010A439A6103
:1037C000184B9A6980235B0113403B613B69154BA1
:1037D0005A69144B802189020A435A61114B5A6974
:1037E00080239B021340FB60FB6821007B18A02212
:1037F0001A607B1802225A607B1800229A607B189C
:103800000322DA607B1800221A617A189023DB0504
:1038100011001800FEF78EFAC046BD460BB090BDF1
:10382000003001400010024080B58AB000AF202374
:10383000FB18180008231A000021FCF783FD3B1D2C
:1038400018001C231A000021FCF77CFD244B254A9C
:103850001A60234B2F225A60214B00229A60204B82
:10386000214ADA601E4B00221A611D4B00229A6128
:103870001B4B1800FFF74AF8031E01D0FFF74EFE5E
:1038800020217B1800221A607B1800225A607A18C7
:10389000134B11001800FFF747FD031E01D0FFF77F
:1038A0003DFE3B1D60221A603B1DFA2252005A6009
:1038B0003B1D00229A603B1D00221A61391D084BF6
:1038C00008221800FFF7A0F9031E01D0FFF726FE1B
:1038D000034B180000F028F8C046BD460AB080BD72
:1038E000E400002000040040E703000080B584B03D
:1038F00000AF78607B681B68094A93420BD1094B83
:10390000DA69084B02210A43DA61064BDB690222BD
:103910001340FB60FB68C046BD4604B080BDC04696
:10392000000400400010024090B589B000AF7860FC
:103930000C243B19180014231A000021FCF702FD87
:103940007B681B68154A934223D1154B5A69144B67
:103950008021C9020A435A61114B5A698023DB0254
:103960001340BB60BB6821007B1801221A607B18E2
:1039700002225A607B1800229A607B180022DA60CB
:103980007B1801221A617B18064A19001000FEF705
:10399000D1F9C046BD4609B090BDC0460004004004
:1039A000001002400004004880B500AFC046FDE7AB
:1039B00080B500AFC046FDE780B500AFC046BD464C
:1039C00080BD80B500AFC046BD4680BD80B500AFAC
:1039D000FEF794F9C046BD4680BD000080B582B0B8
:1039E00000AF0F4B9A690E4B01210A439A610C4BB1
:1039F0009B69012213407B607B68094BDA69084BA5
:103A0000802149050A43DA61054BDA6980235B05A9
:103A100013403B603B68C046BD4602B080BDC04617
:103A2000001002400D488546FCF728FD0C480D4962
:103A30000D4A002302E0D458C4500433C4188C4209
:103A4000F9D30A4A0A4C002301E013600432A2426F
:103A5000FBD3FCF7CBFCFFF7BFFCFEE70020002008
:103A6000000000200C0000200C7600080C00002054
:103A70009C030020FEE7000090B585B000AF7860A1
:103A80007B681D4A5A401D4B0021180001F09AFF27
:103A90000F23FB1800221A7021E00F243B191A781B
:103AA0001300DB009B189B009B180B33DAB20E202F
:103AB0003B187F210A401A703B181B780F221340D5
:103AC00019003B181B781B09DBB21A000B4B1800BE
:103AD00001F0D4FF3B191A783B1901321A700F23F9
:103AE000FB181B781F2BD8D9054B7A681A60C04683
:103AF000BD4605B090BDC0464145434F2C01002056
:103B0000FC01002080B582B000AF7860034B7A687A
:103B10001A60C046BD4602B080BDC046FC01002010
:103B200090B585B000AF7860134B1B687A68D31AE4
:103B3000132B1AD9104B7A681A6001F0D3FD0300D9
:103B40001A0001235340DBB2002B10D108243B198B
:103B5000180001F0D1FD01F0DDFD03003A1907481E
:103B60001168526802F004F802E0C04600E0C04666
:103B7000BD4605B090BDC046FC0100202C010020D0
:103B800080B582B000AF00F0B3FFFB1D00221A70B9
:103B900017E0FB1D1A78114B9200D356D8B2FB1DCB
:103BA0001B780E4A9B00D31801331B785BB2DBB243
:103BB0000122190000F0BAFFFB1D1A78FB1D01322B
:103BC0001A70064BC4229B5CFA1D12789A42E0D30D
:103BD000C046C046BD4602B080BDC0462C01002094
:103BE00080B582B000AF786039607B68002B15DB50
:103BF0007B680F2B12DC3B68002B0FDB3B68072B2D
:103C00000CDC0B4A7B68D3181B781A003B68DA403F
:103C100013000122134001D0012300E000231A1CED
:103C200001231340DBB21800BD4602B080BDC04680
:103C30000075000890B587B000AFF860B9607A6091
:103C40003B60FB687B6101231A1CBB68072B01DC0E
:103C500000231A1CD1B23B680722DC0FD0179A420E
:103C600044412300DBB24B40DBB2002B01D00123E7
:103C70004AE07B68022B08DD7B68042B05DCBB6A0D
:103C8000022B02DDBB6A042B01DD00233CE0BB6894
:103C9000072B1AD13B68082B17D11D4B1B68002B33
:103CA00013DD7B691A7A1B4B1B789A420DD97B690D
:103CB0001B7A013BDAB27B691A727B695B7A01334A
:103CC000DAB27B695A7201231EE0BB68082B1AD155
:103CD0003B68072B17D10E4B1B68002B13DA7B694F
:103CE0001A7A0C4B1B789A420DD27B691B7A0133EE
:103CF000DAB27B691A727B695B7A013BDAB27B6963
:103D00005A72012300E000231800BD4607B090BDA1
:103D1000F8020020FC02002080B586B000AF02004F
:103D2000FB1D1A70FB1D1B78002B01D0012300E046
:103D30000823FB60FB1D1B78002B01D0082300E04B
:103D40000F23BB60FB687B611EE000233B6110E03A
:103D50003A697B6911001800FFF742FF031E05D086
:103D60003A697969264B180001F088FE3B690133F6
:103D70003B613B69072B04DC214BC4229B5C172B66
:103D8000E6D97B6901337B617A69BB689A4204DAC0
:103D90001B4BC4229B5C172BD7D9FB1D1B78002B18
:103DA00001D0184A00E00022174B1A60164B1B681E
:103DB000144AD21A144B5A60FB1D1B78002B03D0F7
:103DC0000F4BC4229A5C00E000220F4B1A720C4B7E
:103DD000C4229A5C0C4B1B7AD31ADAB20A4B5A7281
:103DE000094B01229A72FB1D1B7801225340DBB262
:103DF0001A00064B1A70C046BD4606B080BDC046CC
:103E00001002002040420F00E0020020FE020020CD
:103E1000F0B597B000AFF863B9635D4B1B68002B3A
:103E200000D1B1E05B4BDB7A002B1DD0594B1A68F7
:103E3000594B9A420AD1564B1B68002B06DD574A54
:103E400000231370534A0023D3720DE0514B1B68BB
:103E5000002B09D14E4B1B68002B05DA4F4A01237A
:103E600013704C4A0023D3724D4B1B881A00130069
:103E70005B009B185B033B65BB6B3B6200237B6273
:103E8000FB6BBB610023FB61BA69FB69386A796A25
:103E900002F093FC02000B003A627B62D40E5901DF
:103EA0007963796B2143796353013B633A6B7B6B95
:103EB000386A796A121A8B41D40D5902F962F96A8B
:103EC0002143F9625302BB62BA6AFB6A386A796AB3
:103ED00012184B41940E9E0126439501AD1A9E4146
:103EE0002A00330012184B412E490968396100211C
:103EF00079613869796912184B41BA64FB643B6D8A
:103F0000BB600023FB60BA68FB68B86CF96CFCF717
:103F1000ADF902000B0013007B653B6D3B60002395
:103F20007B60B86CF96C3A687B68FCF79FF91D4BB5
:103F30001A60174B1B68002B02DD164B1B6801E053
:103F4000144B5B687B647A6D7B6C9A4204D37B6C08
:103F50007B65144B00221A600D4B1B68002B06DD9D
:103F60000C4B1A687B6DD21A0A4B1A6005E0094B9C
:103F70001A687B6DD218074B1A60064B1B68064AFD
:103F8000D21A044B5A6000E0C046BD4617B0F0BDDF
:103F9000F8020020E002002040420F00FE02002054
:103FA0000A000020F002002080B588B000AF7860E1
:103FB0000023FB612CE0304BFA6952000021D15202
:103FC0000023BB611EE0FA69BB6911001800FFF70E
:103FD00007FE03001A0001235340DBB2002B0ED072
:103FE000254BFA695200D25A0121BB6999400B0056
:103FF0009BB2134399B2204BFA695200D152BB696C
:104000000133BB61BB690F2BDDDDFB690133FB6154
:10401000FB69072BCFDD7B68184A5A401649184BBD
:10402000180001F0CFFC174A1749154B180001F092
:1040300013FD144B18000C231A000021FCF782F921
:10404000124B02221A70124B7A681A60114B00222E
:104050001A60114B00221A60104B00221A60104B9C
:1040600000221A700F4B00221A700F4B0F4A1A8051
:10407000C046BD4608B080BD00020020444E4153FA
:1040800010020020E0020020353C0008FE02002063
:10409000EC020020F0020020F8020020F4020020D0
:1040A000FC020020FD0200200A0000201027000072
:1040B00080B582B000AF7860034B7A681A60C04662
:1040C000BD4602B080BDC046EC020020F0B585B010
:1040D00000AF0E26B9190880B9190888FA2189009D
:1040E000884204D3B91909881748814201D90023AD
:1040F00025E0164909683960002179600E26B91952
:10410000098889B20A0000210B003868796802F03A
:1041100054FB02000B00100019000D4B1B881C0003
:1041200000231D0022002B00FCF7A0F802000B006A
:10413000064B1A60064BBA1912881A800123180020
:10414000BD4605B0F0BDC04610270000F0020020BB
:104150000A00002090B58BB000AF786001F0C2FA81
:1041600003001A0001235340DBB2002B03D0774B2E
:104170007A681A60E6E0754B1B687A68D31A3B626E
:104180003B6A132B00D8DAE0704B7A681A600C2473
:104190003B19180001F0B0FA3B191B68FB610021C4
:1041A000F869FCF73BF8031E04D0FB698022120675
:1041B000534000E0FB697B62FE218905786AFCF7C9
:1041C00041F8031E02D0FE239B057B626049786A9A
:1041D000FCF724F8031E01D0002309E00021F86950
:1041E000FCF730F8031E01D0012301E001235B42FC
:1041F000584A1360584B9B7A01225340DBB2002B84
:104200000ED0544B1B68002B00D19AE0514B1B6819
:10421000DA17D31ADB0FDBB21800FFF77DFD90E051
:104220004C4B1A684D4B1B689A4206D04C4B0022EF
:104230001A60484B1A68494B1A603B6AFA2B14D82B
:104240008921C905786A02F03DFE031CFC2189051D
:10425000181C02F05BFB031C181C02F0D0FA0200D1
:104260003B6A11001800FFF7D3FD3B4B1A6813009F
:104270005B009B18DB00BB61364B1B68002B0CDD21
:10428000BB69384A9446634437491800FBF718FF66
:104290000300DAB2354B1A7008E0BB6932491800E6
:1042A000FBF70EFF0300DAB2304B1A7001F032FA5E
:1042B00003000C22BA182E481168526801F058FC0D
:1042C0002C4B1B78002B09D1234B1B68002B05D1ED
:1042D000214B1B7A002B01D1012200E00022172381
:1042E000FB181A701A7801210A401A70214B1B78AA
:1042F000012B09D1184B5B68002B05D1164B5B7A5B
:10430000002B01D1012200E0002216203B181A7078
:104310001A7801210A401A703B181B78002B04D12F
:104320001723FB181B78002B0CD00B4B0122DA72E1
:10433000104B02221A70104B01221A7002E0C04684
:1043400000E0C046BD460BB090BDC046EC02002068
:104350009A99193EF8020020E0020020F4020020A1
:10436000F00200203F420F0040420F00FC020020FC
:1043700010020020FE020020FD02002080B584B063
:1043800000AF00F0B5FB0023FB6059E00023BB60E9
:1043900050E0BA68FB6811001800FFF721FC030029
:1043A0001A0001235340DBB2002B25D0FB68013BF0
:1043B000BA6811001800FFF713FC031E1AD1FB683E
:1043C0000133BA6811001800FFF70AFC031E11D16F
:1043D000BB685A1EFB6811001800FFF701FC031EA2
:1043E00008D1BB685A1CFB6811001800FFF7F8FBE6
:1043F000031E01D0012200E00022FB1D1A701A7872
:1044000001210A401A70FB1D1B78002B07D1BA68E6
:10441000F9680F4B180001F083FB031E07D0FB68FF
:10442000DBB2BA68D1B20122180000F07FFBBB6892
:104430000133BB60BB68072BABDDFB680133FB605E
:10444000FB680F2BA2DDC046C046BD4604B080BD50
:104450001002002080B582B000AFFB1D054A127823
:104460001A70044B00221A70FB1D1B781800BD4601
:1044700002B080BDFD02002080B582B000AF020016
:10448000FB1D1A70FB1D1B78002B0AD19023DB0546
:1044900002211800FDF7BEFD03005A425341DBB272
:1044A00009E09023DB0501211800FDF7B3FD0300AF
:1044B0005A425341DBB21800BD4602B080BD80B500
:1044C00082B000AF0200FB1D1A70FB1D1B78002B91
:1044D00001D1012300E004231800BD4602B080BDD5
:1044E00080B582B000AF0200FB1D1A70FB1D1B7867
:1044F000002B01D1022300E008231800BD4602B0C2
:1045000080BD0000F0B585B000AF78600F23FB18C8
:1045100000221A7046E00E26BC190F257B191B7865
:104520001800FFF7A9FF0300237028003B181A7832
:10453000244913005B009B189B00BA1912785A5447
:104540003B181A781F4913005B009B189B00CB187F
:104550000133BA1912781A703B181A7819491300E6
:104560005B009B189B00CB18023300221A703B188B
:104570001A78144913005B009B189B00CB18043376
:104580007A681A603B181A780E4913005B009B1872
:104590009B00CB1808337A681A603B181A783B18CE
:1045A00001321A700F23FB181B78012BB3D9064B6D
:1045B0007A681A60054B00221A70C046BD4605B0E5
:1045C000F0BDC04600030020180300201C0300209B
:1045D000B0B586B000AF7860494B1B687A68D31AD3
:1045E000042B00D887E0464B7A681A601723FB1823
:1045F00000221A7079E017217B181A7813005B00EB
:104600009B189B003F4A9B183B610F257C197B1828
:104610001B781800FFF730FF030023703B691B78FD
:104620007A1912789A4206D03B697A1912781A7070
:104630003B697A685A603B691A783B695B789A42B1
:1046400029D03B695B687A68D31A182B23D93B6958
:104650001A783B695A703B695B78002B06D03B693E
:104660007A689A603B6900229A7014E03B699B78F3
:1046700001225340DBB2002B0DD01723FB181B780F
:104680001800FFF71CFF03001A001F4B1B78134391
:10469000DAB21D4B1A703B695B78002B1FD03B6967
:1046A0009B7801225340DBB2002B18D03B699B68FA
:1046B0007A68D21AAF239B009A4210D33B69012239
:1046C0009A701723FB181B781800FFF709FF0300E7
:1046D0001A000D4B1B781343DAB20B4B1A701721DB
:1046E0007B181A787B1801321A701723FB181B7875
:1046F000012B80D900E0C046BD4606B0B0BDC04623
:1047000018030020000300201C03002080B582B0A5
:1047100000AFFB1D054A12781A70044B00221A7074
:10472000FB1D1B781800BD4602B080BD1C03002095
:1047300080B500AF074B1B680022DA63054B0821E8
:104740001800FEF7E5F9044B00221A70C046BD467A
:1047500080BDC046E40000202903002080B584B05D
:1047600000AF0200BB1D1A80BB1D1B885B089BB2FB
:104770001A00214B1B68D218BB1D1B8819001000A2
:10478000FBF79EFC0300FB60FB68012B04D9FA6871
:1047900080235B029A4201D9002328E0174B0821AD
:1047A0001800FEF7B5F9154B1B68FA68013ADA6292
:1047B000FB685A1E114BDA60104B1B68FA685208EE
:1047C000DA630E4B1B6800225A620C4B0121180061
:1047D000FEF7E0FA031E01D0002308E0074B082192
:1047E0001800FEF7E3F803005A425341DBB2180009
:1047F000BD4604B080BDC04620030020E400002078
:1048000080B586B000AF3B1D180010231A000021B0
:10481000FBF798FD3A003B1D11001800FDF72EF93B
:10482000FDF716F903007B613B1DDB68002B02D00E
:104830007B695B007B610B4B5B6801331900786916
:10484000FBF73EFC03001A00074B1A60074B0022DF
:104850001A70074B00221A60FFF76AFFC046BD4678
:1048600006B080BDE40000202003002028030020C3
:104870002403002080B582B000AF78600C4B00228A
:104880001A700C4B7A681A600B4B01221A700B4B92
:104890001800FFF763FF03001A0001235340DBB247
:1048A000002B01D0FFF744FFC046BD4602B080BDDB
:1048B0002803002024030020290300200B0200000D
:1048C00080B584B000AF78600F23FB1800221A7007
:1048D0001DE0244B1B78244A9B00D31802331B880D
:1048E0001A00224B1B68D218204B1A601D4B1B78F4
:1048F0000133DAB21B4B1A701A4B1B78082B02D10A
:10490000FFF716FF2BE00F23FB1801221A70184B3C
:104910001B78002B0CD0154B1B687A68D31A114AF0
:104920001278114992008A18023212889342D0D22A
:104930000F23FB181B78002B11D00A4B1B781A0091
:10494000094B9200D35A1800FFF708FF03001A0022
:1049500001235340DBB2002B01D0FFF7E9FEBD4637
:1049600004B080BD28030020107500082403002037
:104970002903002090B585B000AF040008001100A5
:104980003B60FB1D221C1A70BB1D021C1A707B1D94
:104990000A1C1A70FB1D1B78002B0FD13B680022EC
:1049A0001A700F23FB1800221A700E23FB18002226
:1049B0001A700D23FB1800221A700EE03B680122CA
:1049C0001A700F23FB1800221A700E23FB18002206
:1049D0001A700D23FB1800221A700F23FB181B7886
:1049E000032B20D02BDC012B02D0022B0CD026E095
:1049F0007B1D1B780722D31ADAB23B6A1A707B6AD6
:104A0000BA1D12781A7023E0BB1D1B780722D31A37
:104A1000DAB23B6A1A707B1D1B780722D31ADAB20E
:104A20007B6A1A7014E03B6A7A1D12781A70BB1DFB
:104A30001B780722D31ADAB27B6A1A7008E03B6A45
:104A4000BA1D12781A707B6A7A1D12781A70C046E5
:104A50000E23FB181B78002B06D03B6A1B7807221D
:104A6000D31ADAB23B6A1A700D23FB181B78002B9D
:104A700006D07B6A1B780722D31ADAB27B6A1A70D7
:104A8000C046BD4605B090BD80B500AF064B0022C4
:104A90001A70002000F0D1F900F02AF800F0BAF8FE
:104AA000C046BD4680BDC0463C03002080B582B0F4
:104AB00000AF0200FB1D1A70FB1D1B78022B02D9F0
:104AC000FB1D02221A70094B1B78FA1D12789A42BC
:104AD00008D0FB1D1B78180000F090F9034BFA1D5D
:104AE00012781A70C046BD4602B080BD3C0300205B
:104AF00080B582B000AFFB1D00221A700AE0FB1DDA
:104B00001A78094B52000021D152FB1D1A78FB1D67
:104B100001321A70FB1D1B78072BF0D9C046C04626
:104B2000BD4602B080BDC0462C03002090B583B0C6
:104B300000AF040008001100FB1D221C1A70BB1DF1
:104B4000021C1A707B1D0A1C1A70FB1D1B780F2B90
:104B50002FD8BB1D1B78072B2BD87B1D1B78002B58
:104B600012D0BB1D1A78154B5200D15AFB1D1B7871
:104B700001229A4013009BB2BA1D12780B4399B2DE
:104B80000E4B5200D15215E0BB1D1A780B4B520050
:104B9000D35AFA1D1278012191400A0092B2D243F1
:104BA00091B2BA1D12780B4099B2044B5200D15207
:104BB00000E0C046BD4603B090BDC0462C030020B7
:104BC00080B582B000AF0200FB1D1A70BB1D0A1C2D
:104BD0001A70FB1D1B780F2B03D8BB1D1B78072BEE
:104BE00001D900230FE0BB1D1A78094B5200D35A9C
:104BF000FA1D1278012191400A0092B213409BB233
:104C00005A1E9341DBB21800BD4602B080BDC046BB
:104C10002C030020F0B58BB002AF0823FB1818005E
:104C200010231A000021FBF78DFB1F23FB18002225
:104C30001A7079E01E23FB1800221A7069E01F2504
:104C40007B191A781E243B191B7811001800FFF7F6
:104C5000B7FF03001A0001235340DBB2002B51D1F0
:104C60001C203B183A191278D2081A701B26BB195F
:104C70003A19127807210A401A70FC1D7B191A781C
:104C8000BB1919783B1818787B1D0193BB1D009345
:104C90002300FFF76FFEFB1D1B781800FB1D1B7820
:104CA0001C007B1D1B781900384AE300D3185B5C9D
:104CB00019000823FA18C300D3185A5CFB1D1B788F
:104CC0001C00BB1D1B7818003149E300CB181B5C8E
:104CD000190001238B40DBB2F91D09780C00F91D86
:104CE00009780E00791D09780D002848F100411857
:104CF000495D1343D8B20823FA18E300D318021C05
:104D00005A5400E0C0461E217B181A787B180132E5
:104D10001A701E23FB181B780F2B90D91F217B18AC
:104D20001A787B1801321A701F23FB181B78072B87
:104D300080D91D23FB1800221A701DE01D217B184D
:104D40001B7808203A18D25C3B001A707B181B783D
:104D50003A18D3181A7A3B005A700C007B181B784B
:104D60000133DBB23A001100180000F013F83B19D0
:104D70001A783B1901321A701D23FB181B78072B78
:104D8000DCD9C046C046BD4609B0F0BD407500083C
:104D90003075000890B585B000AF02003960FB1D8A
:104DA0001A700C217B18FA1D12781A703B680133B7
:104DB0001A780C003B195A703B19FA1D12789A7038
:104DC0003B681A783B19DA709023DB05002210212A
:104DD0001800FDF73CF9391907480A230422FDF7AA
:104DE000BFFA9023DB05012210211800FDF72FF9EF
:104DF000C046BD4605B090BD8000002080B584B09F
:104E000000AF0200FB1D1A70FB1D1B780F2B02D98F
:104E1000FB1D0F221A700C217B18FA1D12781A70D4
:104E20007B18FA1D12785A707B1819000A20FFF7B8
:104E3000B1FFC046BD4604B080BD90B585B000AF9F
:104E40000200FB1D1A700C217B1800221A707B18BF
:104E500000225A700C003B1919000C20FFF79AFF32
:104E60003B1919000F20FFF795FF3B191900092086
:104E7000FFF790FF3B1907221A703B1907225A705F
:104E80003B1919000B20FFF785FFFB1D1B7818004D
:104E9000FFF7B4FF3B1900221A703B1900225A7029
:104EA0000F23FB1801221A700EE00C23FA180F24AE
:104EB0003B191B7811001800FFF76CFF21007B18CD
:104EC0001A787B1801321A700F23FB181B78082BF5
:104ED000EBD90C217B1801221A707B1801225A7021
:104EE0007B1819000C20FFF755FFC046BD4605B0E2
:104EF00090BD000080B586B004AF39601100FB1D85
:104F0000021C1A703B1D0A1C1A80FB1D1B789AB2EA
:104F10000948052302933B1D1B8801933B680093BE
:104F20000123D021FBF784FC03005A425341DBB23A
:104F30001800BD4602B080BD2C00002080B586B0B0
:104F400004AF0200FB1D1A70BB1D0A1C1A70FB1D6A
:104F50001B789AB209480523029301230193BB1DD4
:104F600000930123D021FBF735FB03005A42534144
:104F7000DBB21800BD4602B080BDC0462C00002048
:104F800080B582B000AF02003960FB1D1A70084B7B
:104F9000FA1D12781A70074B00221A70064B06226F
:104FA0001A70064B3A681A60C046BD4602B080BD12
:104FB0003E030020680300203D0300205C03002026
:104FC00080B584B000AF78607B681B781BB21B0291
:104FD0001AB27B6801331B781BB213431AB20E213D
:104FE0007B181A807B1800229B5E1800BD4604B017
:104FF00080BD000080B588B000AF7860114B002202
:105000001A70114B00221A70104B180018231A0046
:105010000021FBF797F90E4B00221A700D4B00226E
:105020001A700D4B7A681A600C4B7A681A600C4B38
:105030007A681A600B4B00221A70C046BD4608B051
:1050400080BDC0463D0300203E03002040030020F9
:1050500058030020590300205C0300206003002057
:105060006403002068030020F0B587B000AF7860CB
:105070009C4B1B78062B00D92FE19A009A4BD31832
:105080001B689F46994B1B687A68D31A632B00D81C
:1050900018E1944B1B78002B01D1012200E004227F
:1050A000904B1A700EE1924B00221A70904B012225
:1050B00019007520FFF71EFF03001A00012353405B
:1050C000DBB2002B05D07B6819000220FFF758FFE8
:1050D00003E1874B1B78682B05D07B681900032000
:1050E000FFF74EFFF9E07F4B02221A70F5E08021B6
:1050F0006B20FFF723FF03001A0001235340DBB2AC
:10510000002B05D07B6819000220FFF739FFE4E08F
:10511000744B03221A70754B7A681A60754B002223
:105120001A70DAE0734B1B78012B06D16F4B1B68AA
:105130007A68D31A312B00D8C6E06E4B1B781A0060
:105140006D4B5200D05C6B4B1B786B4A5B00D318E5
:1051500001331B781900FFF7F1FE03001A00012349
:105160005340DBB2002B05D07B6819000220FFF70B
:1051700007FFB2E05F4B1B780133DAB25D4B1A7068
:105180005A4B7A681A605B4B1B78072B00D09DE066
:10519000544B05221A70594B7A681A60584B7A683A
:1051A0001A6093E0554B1B687A68D31A092B00D814
:1051B0008EE0524B7A681A600823FB180F22190000
:1051C0003A20FFF797FE03001A0001235340DBB299
:1051D000002B05D07B6819000220FFF7D1FE7CE090
:1051E0000823FB181B781A00012313400BD1444BF2
:1051F0001B687A68D31A632B6CD97B68190004206A
:10520000FFF7BEFE66E01723FB1800221A7029E0A4
:1052100017257B191B785B0001330826BA19D218B1
:105220007B191C781000FFF7CBFE03001900354BEB
:105230006200D1527B191B785B000933BA19D2186E
:105240007B191C781000FFF7BBFE030019002D4AE4
:105250006300D31806330A1C1A807B191A787B194D
:1052600001321A701723FB181B78022BD0D90823A0
:10527000FB1807331800FFF7A3FE03001A00214BA9
:105280009A81204B7A681A611E4B5B695A1C1D4B30
:105290005A611B4B7A681A601B4B01221A701B4B18
:1052A00001221A7019E0114B1B687A68D21AFA238E
:1052B0005B009A4210D3154B00221A70094B012251
:1052C0001A7009E0C04608E0C04606E0C04604E0A7
:1052D000C04602E0C04600E0C046C046BD4607B03A
:1052E000F0BDC0463D030020607500085C0300204F
:1052F0005803002059030020507500086003002067
:105300006403002040030020680300203E030020C7
:1053100080B500AF024B1B781800BD4680BDC0466B
:105320003E03002090B583B000AF786039607B68A1
:10533000002B10D00E4B1B78012B0CD10D4B1B7882
:1053400001225340DBB2002B05D10B4B1B693A689D
:10535000D31A632B01D9002306E07B68064A13CADF
:1053600013C313CA13C301231800BD4603B090BD75
:105370003E030020680300204003002080B584B075
:1053800000AF78600023FB608023DB05BB6002E098
:10539000BB689B08BB60BA687B689A42F8D817E084
:1053A000FA68BB68D3187A689A420BD3FA68BB686C
:1053B000D3187A68D31A7B60FB685B08BA68D31885
:1053C000FB6002E0FB685B08FB60BB689B08BB609E
:1053D000BB68002BE4D1FB681800BD4604B080BD5B
:1053E00080B584B000AF0F23FB1800221A700BE0C9
:1053F0000F203B181A78134B92000021D1503B1814
:105400001A783B1801321A700F23FB181B78022BF5
:10541000EED90D4B00221A600C4B00221A600C4B87
:1054200000221A700B4B00221A700B4B00221A60DC
:10543000094B00225A60094B00221A70C046BD4633
:1054400004B080BD6C030020780300207C030020A2
:105450008003002081030020840300208C030020AF
:10546000B0B596B000AF78607A682423FB181100BD
:105470001800FFF757FF03001A0001235340DBB267
:10548000002B0FD08E4B00221A708E4B00221A7008
:105490008D4B00221A608C4B00225A608B4B0022ED
:1054A0001A700AE1864B1B78002B07D02423FB18C7
:1054B0005A69874B1B689A4200D1FBE0804B1B78EE
:1054C00001225340DBB2002B04D02423FB181A69BD
:1054D000804B1A6000237B6500233B654F23FB183C
:1054E00000221A706BE04F217B181A782423FB18D6
:1054F0005200D35E1B023B64714B1B780122534068
:10550000DBB2002B06D07B181A78734B9200396CF3
:10551000D15018E04F257B191A786F4B9200D45860
:105520007B191A786C4B9200D3583A6CD31A052128
:105530001800FAF70BFE030019007B191A7861189E
:10554000654B9200D1504F203B181A78624B920065
:10555000D1583B181A780B1E00DAFF331B121900C2
:1055600018243B199200D1504F203B181A783B1950
:105570009200D3583A1811783A1989008A5853433F
:105580001A007B6D9B187B653B181A782423FB1847
:105590005200D35E19003B181A783B199200D35879
:1055A000CB1AFB63FB6BDA179B1853401A003B6D59
:1055B0009B183B653B181A783B1801321A704F2331
:1055C000FB181B78022B8ED93D4B01221A70242325
:1055D000FB185A693E4B1A603C4B1B781A001300AB
:1055E000DB009B1ADB08DAB2384B1A703A6D802365
:1055F0005B019A4217D93A6D13001B029B1A374A76
:10560000944663449B0BBB64BB6CFF2B01D9FF2307
:10561000BB642E4B1B781A00BB6C934203D9BB6C46
:10562000DAB22A4B1A707B6D1800FFF7A7FE030051
:105630007B64244B00221A70234B00221A60224BF9
:1056400000225A602423FB181A69224B1B68D21AC5
:10565000C8235B009A422FD37B6C214A93422BD9FB
:1056600018257B191B685B42180001F0A5FE041C7D
:10567000786C01F0E3FE031C191C201C01F0A6FA53
:10568000031C1A1C104B1A607B195B68180001F090
:1056900093FE041C786C01F0D1FE031C191C201C25
:1056A00001F094FA031C1A1C074B5A60054B0122A7
:1056B0001A7002E0C04600E0C046BD4616B0B0BD5C
:1056C0008003002081030020840300208C0300203D
:1056D0007C030020780300206C0300200010F0FF02
:1056E000CB0C000080B500AF024B1B781800BD4604
:1056F00080BDC0468103002080B582B000AF7860D5
:105700007B68034A03CA03C37868BD4602B080BD04
:105710008403002080B500AF054B1B78002B02D01E
:10572000044B1B7800E000231800BD4680BDC04636
:10573000810300208C03002080B584B000AF786026
:105740007B68C0229B58FB60FB685B03FA68534090
:10575000FB60FB685B0CFA685340FB60FB685B0115
:10576000FA685340FB607B68C021FA685A50FB68B6
:105770001800BD4604B080BD80B582B000AF78602F
:1057800039607B68002B0ADB7B680F2B07DC3B68EA
:10579000002B04DB3B68072B01DC012300E0002326
:1057A0001A1C01231340DBB21800BD4602B080BDB5
:1057B00080B584B000AFF860B9607A607A68BB6881
:1057C00011001800FFF7D8FF03001A00012353400F
:1057D000DBB2002B0DD1FB687A6858325200D35AE5
:1057E0000121BA6891400A0092B213409BB2002B8B
:1057F00001D0012300E000231A1C01231340DBB277
:105800001800BD4604B080BDB0B588B002AFF860E6
:10581000B9607A603B60BB681B785BB21A007B683A
:105820009B187B61BB685B785BB21A003B689B1876
:105830003B613A697969FB681800FFF7B9FF031EFD
:1058400007D13A697969FB68180000F069F9031E0D
:1058500001D0002381E07B68002B24D03B68002B23
:1058600021D0BB681B785BB21A007B68D118BB687B
:105870005B785BB21A00FB681800FFF799FF031E04
:1058800011D0BB681B785BB21900BB685B785BB258
:105890001A003B68D218FB681800FFF789FF031E47
:1058A00001D0002359E0FB68C8229B58002B1CD074
:1058B000FB68C8229C58FB68CC229858BB681B78B0
:1058C0005BB21900BB685B785BB21D007A693B690B
:1058D000009313002A00A04703001A00012353403D
:1058E000DBB2002B01D0002337E0BB685B785BB2F2
:1058F000DBB21A00FB6850325200D35ABA681278F1
:1059000052B2110001228A4092B2D24392B2B968D7
:10591000497849B2C9B20800134099B2FB68020045
:1059200050325200D152FB683A6950325200D25A7A
:1059300001217B6999400B009BB2134399B2FB682C
:105940003A6950325200D1527B695AB2BB681A7020
:105950003B695AB2BB685A7001231800BD4606B0B5
:10596000B0BD000080B584B000AF7860FE2189052D
:105970007868FAF767FC031E02D0FE239B057B6064
:105980000F497868FAF74AFC031E01D00C4B7B6084
:105990008721C905786801F095FA031C181C01F0ED
:1059A000EDFC0300FB60FB68133302DBFB68132B89
:1059B00001DDFB6800E000231800BD4604B080BD97
:1059C000000080BF80B586B000AFF860B9607A6033
:1059D0001723FB1800221A701EE017203B181A78B4
:1059E000FB68503252000021D152BB68002B06D018
:1059F0003B181B785B00BA68D318198800E00021B7
:105A000017203B181A78FB6858325200D1523B18C5
:105A10001A783B1801321A701723FB181B78072BD2
:105A2000DBD9FB68C422002199547B68002B01D08C
:105A30007B6800E0074BFA68C0215350FB68C8221E
:105A400000219950FB68CC2200219950C046BD46E8
:105A500006B080BDF5792B6D80B584B000AFF860DD
:105A6000B9607A60FB68C821BA685A50FB68CC21DB
:105A70007A685A50C046BD4604B080BD80B586B035
:105A800000AFF860B9607A60FB68C4229B5C272B8A
:105A90000FD87A68B968FB681800FFF789FE031E03
:105AA00007D17A68B968FB68180000F039F8031E5E
:105AB00001D0002330E0FB68C4229B5C5A1CD0B2AA
:105AC000FA68C42150549B00FA68D3187B61BB6804
:105AD0005AB27B691A707B685AB27B695A70FB684C
