:020000040800F2
:1000000000200020ED220008AD220008AF220008E9
:1000100000000000000000000000000000000000E0
:10002000000000000000000000000000B1220008F5
:100030000000000000000000B3220008B522000804
:100040003D230008000000003D2300083D23000878
:100050003D2300083D2300083D2300083D23000800
:10006000000000003D2300083D2300083D23000858
:100070003D2300083D2300083D2300080000000048
:100080003D2300083D230008000000003D23000838
:100090003D2300083D2300083D2300083D230008C0
:1000A0003D2300083D2300083D2300083D230008B0
:1000B0003D230008000000000000000000000000D8
:1000C00002B4714649084900095C49008E4402BCEB
:1000D0007047C046002934D00123002210B4884262
:1000E0002CD301242407A14204D2814202D2090167
:1000F0001B01F8E7E400A14204D2814202D2490088
:100100005B00F8E7884201D3401A1A434C08A0422A
:1001100002D3001B5C0822438C08A04202D3001BC0
:100120009C082243CC08A04202D3001BDC082243D7
:10013000002803D01B0901D00909E3E7100010BC17
:10014000704701B5002000F05FF802BD0029F8D02B
:1001500003B5FFF7C1FF0EBC4243891A1847C046DA
:10016000002941D010B404004C40A44601230022D1
:10017000002900D54942002800D5404288422CD3AE
:1001800001242407A14204D2814202D209011B01A9
:10019000F8E7E400A14204D2814202D249005B00A8
:1001A000F8E7884201D3401A1A434C08A04202D310
:1001B000001B5C0822438C08A04202D3001B9C0851
:1001C0002243CC08A04202D3001BDC0822430028B3
:1001D00003D01B0901D00909E3E710006446002C95
:1001E00000D5404210BC704701B5002000F00CF86B
:1001F00002BDC0460029F7D003B5FFF7B3FF0EBC20
:100200004243891A1847C0467047C046D0400B0089
:10021000D1409C46203AD340184352426346934013
:1002200018437047844608006146FFE71FB503F096
:10023000F2FE002801D40021C8421FBD10B503F012
:1002400087FE4042013010BD10B503F0E4FE0028E7
:1002500001DB002010BD012010BDC04610B503F029
:10026000DAFE002801DD002010BD012010BDC046CF
:1002700010B503F092FE002801DC002010BD012023
:1002800010BDC04610B503F088FE002801DA00203A
:1002900010BD012010BDC046002B11D1002A0FD186
:1002A000002900D1002802D00021C943080007B46A
:1002B000024802A14018029003BDC0464DFFFFFF57
:1002C00003B4684601B5029803F099FB019B9E4672
:1002D00002B00CBC7047C0469140030090409C4661
:1002E000203A9340194352426346D3401943704722
:1002F0001C2101231B04984201D3000C10391B0A56
:10030000984201D3000A08391B09984201D3000919
:10031000043902A2105C40187047C0460403020270
:1003200001010101000000000000000010B50029DB
:1003300003D1FFF7DDFF203002E00800FFF7D8FF10
:1003400010BDC046F0B50500830749D0541E002AF1
:1003500045D003000326CAB202E00135013C3ED37A
:1003600001332A703342F8D1032C30D9FF220A40DE
:100370001502AD182A04AD180F2C34D92700103FF0
:100380003F093E01B4461E001A001036664415604F
:1003900055609560D56010329642F8D101373F0123
:1003A000DB190F270C22274022403C00002A0ED0E8
:1003B0003E1FB608B400A4461A001C1D644420C2A7
:1003C000A242FCD103240136B6009B193C40002C0C
:1003D00005D0C9B21C19197001339C42FBD1F0BD84
:1003E00003001400C0E72700E2E7C04670B50D4BDC
:1003F0000D4D5E1BB610AB4205D0002408CD013474
:100400009847A642FAD804F03BF9084B084D5E1B0A
:10041000B610AB4205D0002408CD01349847A6425F
:10042000FAD870BDA0470008A0470008A4470008FC
:10043000A047000810B5064C2378002B07D1054BC8
:10044000002B02D0044800E000BF0123237010BD40
:10045000100000200000000080460008044B10B58A
:10046000002B03D00349044800E000BF10BDC04684
:100470000000000014000020804600087047036858
:100480009A69920701D500229A6201229969114264
:1004900002D199690A439A617047000030B5039C04
:1004A00000682343120489051A43890D054B4568EA
:1004B0000A43640D234352009D4352082A4342607D
:1004C00030BDC046FF63FF03F7B5150002680E009C
:1004D000916910230F0004001F40002019420DD025
:1004E0000700D3610190236820219A690A425FD1F5
:1004F000002F31D004270120019B1F438022256853
:100500005200AB69134202D00120EA610743802206
:10051000D200134203D0082101200F43EA61802258
:100520009200134249D00223EA611F432000FFF7E3
:10053000A6FF6B68224A012013406B60636C202287
:100540003B436364230041331A702200002342328C
:1005500040341370237032E0721CC5D000F0BCFE32
:10056000401BB04201D8002EBDD122002368423288
:10057000586811789A69C9B212040BD58022D20149
:10058000104207D1202905D059680A435A6000F06B
:10059000A3FE0500202223689B691342A3D100F02B
:1005A0009BFE401B1928F5D92023012701939AE7C8
:1005B000002F9FD12022DA619CE70028B6D1FEBD32
:1005C00000E800FEF8B504000D00160002272368BD
:1005D0009B693B4201D0002021E03200290020002D
:1005E000FFF772FF002819D16B1CF0D000F074FEE9
:1005F000801BA84201D8002DE9D123689969022304
:100600000A001A401942E2D12021636C0B43636453
:1006100023004034413319705A7022700120F8BD14
:10062000F8B504000D0017001E0023689B692B40DD
:100630005B1B5A425341BB4201D0002026E03100EF
:100640002000069AFFF740FF00281ED1731CECD053
:1006500000F042FE069BC01AB04201D8002EE4D141
:1006600023689B692B405B1B5A425341BB42DCD140
:100670002022636C13436364230041331A70220009
:10068000002342324034137023700120F8BDF8B5C6
:1006900004000E001700202523689B692B4201D01F
:1006A00000201DE03A0031002000FFF70DFF002878
:1006B00015D100F011FEC01BB04201D8002EEBD1C5
:1006C00023689B691A002A402B42E5D1636C2B43B7
:1006D00063642300403441331D705A70227001203E
:1006E000F8BD000070B504000120002C4ED025009C
:1006F00041352B78DAB2002B05D12300403320009E
:100700001A7001F0C5FC242301212B702368E068D6
:100710001A68A6688A431A601D4962680A401A610D
:100720009A681C490A409A60012807D18022120267
:1007300032439A605A681848024009E08422120243
:1007400032439A600228F5D1802258681201024390
:100750005A605868114A02435A60DA6800200A4019
:10076000DA60616922690A43A16909020A43DA6011
:10077000216AE2690A431A60012219680A431A6071
:10078000202360642B7020634234207070BDC0460B
:10079000FFFFFFF0FF7FFFFFFFF7FFFF008000027A
:1007A000F0B5070087B003930CAB029204CB41373E
:1007B0001B88049205933B7804000E000220202B36
:1007C00008D1002A02D0059B002B05D180239B0075
:1007D0006364012007B0F0BD230040331A78022083
:1007E000012AF7D001221A7000F076FD8021050061
:1007F00000901923012220000902FFF711FF0028B1
:10080000E7D121233B7027001F3342373B70049B05
:1008100060646362059B606363856B461A7B4B4B28
:1008200031000093802320005B04FFF737FE2A008D
:1008300020000E99FFF7C6FE002829D1039A2368ED
:10084000012A16D16A46127A9A620022802120007B
:100850000E9B0095FFF7E4FE002819D1638DFF2B56
:100860001AD88023628D9B0492B22285D2B2009066
:1008700017E0029A2000120A9A620E992A00FFF7E6
:10088000A1FE002804D16B4622681B7A9362DCE744
:100890000023403423709CE7FF22802322855B04E1
:1008A000009031002000FFF7F9FD2A0020000E998A
:1008B000FFF788FE002800D08BE7636A226819786A
:1008C000013391626362638D228D013B9BB263852C
:1008D000013A638D92B22285002B16D0002A14D1E2
:1008E000802120000E9B0095FFF79AFE002800D083
:1008F0006FE7638DFF2B21D9FF22802322855B04C4
:10090000009031002000FFF7C9FD638D002BCCD192
:100910002A0020000E99FFF7BAFE002800D058E701
:10092000202123680A4DD9615A682A405A60230061
:10093000403441331970387020704BE78023628D4A
:100940009B0492B22285D2B20090DAE700200080A8
:1009500000E800FEF0B5060087B003930CAB0292EE
:1009600004CB41361B8804920593337804000F00B2
:100970000220202B08D1002A02D0059B002B05D194
:1009800080239B006364012007B0F0BD2300403347
:100990001A780220012AF7D001221A7000F09CFC7C
:1009A0008021192300900500012220000902FFF791
:1009B00037FE031EE7D12222327026001E32423655
:1009C0003270049A60646262059A4E4962856A4692
:1009D0006063127B200000913900FFF75FFD2A0061
:1009E00020000E99FFF7EEFD00282AD1039A236814
:1009F000012A17D16A46127A9A6200224021200009
:100A00000E9B0095FFF70CFE00281AD1628D3E4B1D
:100A1000FF2A1AD8628D92B2228500938023D2B227
:100A20009B0417E0029A2000120A9A620E992A008B
:100A3000FFF7C8FD002804D16B4622681B7A936239
:100A4000DBE70023403423709DE7012222850093D9
:100A500080235B0439002000FFF720FD00220421E1
:100A600020000E9B0095FFF7DBFD002800D08AE7F1
:100A700023685A6A636A1A70636A228D013363625B
:100A8000638D013A013B9BB26385638D92B22285EF
:100A9000002B16D0002A14D1802120000E9B009537
:100AA000FFF7BEFD002800D06DE7638DFF2B21D935
:100AB0000122802322855B04009039002000FFF78B
:100AC000EDFC638D002BC9D12A0020000E99FFF7A1
:100AD000DEFD002800D056E7202123680B4DD961A8
:100AE0005A682A405A6023004034413319703070EC
:100AF000207049E78023628D9B0492B22285D2B296
:100B00000090DAE7002000800024008000E800FE6A
:100B1000F0B504004134227803000F000220D6B261
:100B2000202A18D11D0040352A78012A13D024220A
:100B300022701B68233A19680748914319601968A5
:100B400001400020196019683943196019680A4387
:100B50001A6026702870F0BDFFEFFFFF0200F0B5AD
:100B6000413214780300E5B20220202C17D11C007A
:100B700040342678012E12D0223010701B682338A2
:100B80001E68074F86431E601E6809023E403143BF
:100B90001960196808431860002015702070F0BDB6
:100BA000FFF0FFFFF0B5040085B0002845D00368D2
:100BB000DB072FD423689B0700D581E023681B0740
:100BC00000D5BCE023685B0700D5DFE02368DB06C7
:100BD0001AD562690423B44D012A00D048E1696B3B
:100BE00002270B436B636B6B1A436A6300F074FB61
:100BF00006006B6B3B4200D133E1F8216A6BA369BD
:100C00008A43DB0013436B63236A002B00D057E158
:100C100000202AE00C22A44D6B681340042B06D060
:100C20006B681340082B0AD16B68DB0307D52B6870
:100C30009B03BFD56368002BBCD1012015E063681E
:100C4000012B14D180232A685B0213432B6000F030
:100C500043FB80270600BF022B683B42AAD100F06D
:100C60003BFB801B6428F7D9032005B0F0BD002BA7
:100C700016D12B688D4A802713402B602B688C4A35
:100C8000BF0213402B6000F027FB06002B683B429D
:100C900000D18FE700F020FB801B6428F6D9E3E742
:100CA000052B05D180232A68DB0213432B60C9E79B
:100CB0002B687E4A13402B602B687D4A1340C5E7A2
:100CC0000C22794D6B68134206D06B681340082BD9
:100CD00010D16B68DB030DD42B689B0702D5E3684A
:100CE000012BAAD1F8212A6823698A43DB00134328
:100CF0002B6063E7E2680123002A0FD02A680227ED
:100D000013432B6000F0E8FA06002B683B42E9D160
:100D100000F0E2FA801B0228F7D9A5E72A6802272B
:100D20009A432A6000F0D8FA06002B683B4200D1B3
:100D300044E700F0D1FA801B0228F6D994E7E26973
:100D40000123594D002A10D06A6A022713436B62AF
:100D500000F0C2FA06006B6A3B4200D032E700F0B6
:100D6000BBFA801B0228F6D97EE76A6A02279A43FB
:100D70006A6200F0B1FA06006B6A3B4200D121E7DB
:100D800000F0AAFA801B0228F6D96DE78022002124
:100D9000454D5205EB690091134208D1EB691343AD
:100DA000EB61EB6913400393039B012300938027BE
:100DB000404E7F0033683B4215D0A368012B22D1FF
:100DC0002A6A13432B6200F087FA022706002B6A77
:100DD0003B423FD0009B012B00D0F7E6EB69364A3F
:100DE0001340EB61F2E633683B43336000F074FA82
:100DF000019033683B42E0D100F06EFA019BC01ACB
:100E00006428F6D930E70122002B14D12B6A02277F
:100E100093432B622B6A033293432B6200F05CFAFC
:100E200006002B6A3B42D5D000F056FA234B801BBC
:100E30009842F6D918E7052B05D1296A013B0B43E7
:100E40002B622B6ABDE72B6A934304222B622B6A29
:100E50009343B7E700F040FA184B801B9842B6D98D
:100E600002E700F039FA801B022800D8C1E6FBE651
:100E7000053203D16A6B9A436A63BEE66A6B022746
:100E8000134301226B636B6B93436B6300F024FA93
:100E900006006B6B3B4200D1B6E600F01DFA801BEA
:100EA0000228F6D9E0E6C04600100240FFFFFEFF30
:100EB000FFFFFBFF00700040FFFFFFEF8813000003
:100EC0000C21344D6A680A40082A47D0324A022B66
:100ED00032D12B68802713402B6000F0FDF906000B
:100EE000BF042B683B4221D10F22EB6A802693433B
:100EF000E26AB6041343EB62616AA36A6A680B4351
:100F000026490A4013436B6080232A685B0413431D
:100F10002B6000F0E1F904002B68334200D077E643
:100F200000F0DAF9001B0228F6D99DE600F0D4F9AA
:100F3000801B0228D5D997E62B68802613402B60AA
:100F400000F0CAF90400B6042B68334200D15FE612
:100F500000F0C2F9001B0228F6D985E6012B00D16A
:100F60006BE680226868616A5202EB6A02408A423C
:100F700000D062E60F221340E26A934200D05CE6A2
:100F8000F0239B031840A36AC01A431E9841C0B2C5
:100F90006BE6C04600100240FFFFFFFEFFFFC2FFEE
:100FA0000C2270B50C4D6B681A40082A11D10F2025
:100FB0000A499A0C02408C5CEA6ADB0307D50849AF
:100FC0000240895C0748FFF785F8604370BD06481A
:100FD000FBE70448FAE7C04600100240C04600089C
:100FE000B046000800127A0000093D00F7B5040081
:100FF0000E00002801D10120FEBD0122374D2B68D3
:1010000013408B421CD32268930722D4D2072FD4DB
:1010100001232A681A40B24251D82368304D5B0739
:1010200054D4FFF7BDFF6B682E4A1B061B0FD35C21
:101030002D49D8400860032000F00EF90020DBE7BE
:101040002B6893430B432B602B6813408B42D2D108
:10105000D9E72349530704D5E0234868DB0003435D
:101060004B60F0204B688343A06803434B60CDE79F
:101070001B4F62683B68012A19D19B03BBD5032132
:101080007B688B4313437B6000F026F901900C23AF
:101090007A681A4063689B009A42B9D000F01CF944
:1010A000019BC01A114B9842F1D90320A4E7022AF0
:1010B00002D19B01E3D49EE79B07E0D49BE72A681B
:1010C0009A432A602A681A42A7D094E76B68084AB4
:1010D0001340E26813436B60A3E7C0460020024060
:1010E00000100240A0460008000000208813000005
:1010F000FFF8FFFF044B054A5B6805495B055B0F82
:10110000CB5C1068D84070470010024000000020FF
:1011100098460008072310B503240360094B5A685A
:10112000224042605A68ED3422408260E0225B68CF
:10113000D20013400122C360034B1B6813400B60B5
:1011400010BDC0460010024000200240F0B5036808
:10115000050085B0DB032BD580220021384C5205D9
:10116000E3690091134208D1E3691343E361E36942
:1011700013400393039B012300938027314E7F008C
:1011800033683B4222D0216AC022080092006B687B
:101190002D4E104011422BD1236A6A68334013430D
:1011A0002362009B012B03D1E369284A1340E361CA
:1011B0002A68D30706D5032021490B6B8343A8680F
:1011C00003430B63920633D400200FE033683B43A4
:1011D000336000F081F8019033683B42D3D100F0D6
:1011E0007BF8019BC01A6428F6D9032005B0F0BD36
:1011F00013408342D0D08022236A206A1900520211
:1012000002432262226A1248314002402262216275
:10121000DB07C1D500F060F807000222236A134201
:10122000BAD100F059F80B4BC01B9842F5D9DCE756
:101230001021034A136B8B43E9680B431363C3E725
:101240000010024000700040FFFCFFFFFFFFFFEFB7
:10125000FFFFFEFF8813000070B50500FA200D4B5C
:1012600080001978FEF736FF0B4C01002068FEF76E
:1012700031FF00F025F904000120002C09D1032DD5
:1012800007D802382200290000F0F0F82000034BB4
:101290001D6070BD04000020000000200800002038
:1012A0001023064A10B5116803200B431360FFF7A3
:1012B000D3FF01F003F8002010BDC046002002401B
:1012C000034A044B11681B785B1813607047C046D3
:1012D0002C00002004000020014B18687047C04615
:1012E0002C0000200023F0B587B00A681400DC4011
:1012F00001D107B0F0BD012514009D402C400094A1
:101300002A4200D198E04A685F009446032264466E
:1013100022400324BC40E4430194541E012C2ED8E7
:101320008668019C2640CC68BC4034438460446895
:101330000126AC4325006446240934409C402C43DC
:101340004460C568019C25408C68BC402C43C46047
:10135000022A16D107250F261D40AD00AE40DC083D
:10136000A40004190294246A03962600039CA64351
:1013700034000E69AE402643029C266201E0032A37
:10138000DFD1BA400468019D25402A43C024026091
:101390006246A40222424FD00125284A9027946930
:1013A000FF052C43946192699C082A400592059A96
:1013B000234AA400A4180F2202351D40AD00AA4004
:1013C000A66896430022B8420CD01E4F0132B842A4
:1013D00008D01D4F0132B84204D01C4F0332B8422E
:1013E00000D1023AAA4067463243A260184A009CE4
:1013F0009668009DE4433543FF0201D43500254043
:1014000067469560D668009D3543BF0201D435001C
:1014100025406746D5605668009D3543BF0301D41B
:1014200035002540674655601568009E2E43FF0332
:1014300001D425402E001660013356E7001002400B
:10144000000001400004004800080048000C00486B
:101450000004014000690840431E9841C0B2704733
:10146000002A01D0816170478162FCE710B5FF243A
:1014700003220B0021000240D20091409B01234037
:10148000C943934000280ADBC0240B4A800880002F
:101490008018A40002590A401343035110BD0F22C3
:1014A00010400838054A800880008018C269114041
:1014B0001943C161F2E7C04600E100E000ED00E041
:1014C0008022431E5204012093420DD2C021074ABC
:1014D00007485360036A09061B021B0A0B43036299
:1014E00000200723906013607047C04610E000E0C2
:1014F00000ED00E0F0B50E0085B015000400FFF728
:10150000EBFEAD192D1AFFF7E7FE8027254B019062
:101510001B685B011B0D6B430393226893681800E3
:1015200038403B4232D0731CF8D0FFF7D5FE019B08
:10153000C01AA8422CD3E02123685A688A435A6013
:1015400082226168520091420CD18021A268090276
:101550008A4203D08021C9008A4203D140211A68FF
:101560008A431A608021A26A89018A4206D11968D9
:101570000D480140196019680A431A6023000122CE
:101580005D331A70002303205C34237005B0F0BD76
:10159000039B002B00D02B00039A1D00013A0392FD
:1015A000BBE7C04600000020FFDFFFFFF0B51700DB
:1015B000002285B01D0002ABDA7004000E00FFF7B8
:1015C0008BFEED192D1AFFF787FE2322236800906A
:1015D00001932A4B1B6853431B0D6B43039302ABD0
:1015E0002168DA1C8B681800304033423BD0C0239E
:1015F000DB009E4204D1019B1B7BDBB2137013788E
:101600007B1CEFD0FFF768FE009BC01AA8422CD3CA
:10161000E02123685A688A435A6082226168520036
:1016200091420CD18021A26809028A4203D0802114
:10163000C9008A4203D140211A688A431A60802176
:10164000A26A89018A4206D119680D4801401960D1
:1016500019680A431A60230001225D331A700023BF
:1016600003205C34237005B0F0BD039B002B00D039
:101670002B00039A1D00013A0392B0E700000020FE
:10168000FFDFFFFF70B513000D0016000A00C02138
:1016900049010400FFF78AFF002805D0202303201A
:1016A000226E1343236670BD320029002000FFF72D
:1016B00021FF0028F2D1C02133002A002000C900F8
:1016C000FFF774FF0028EED0E8E70000F8B504004B
:1016D0000120002C67D0636A002B65D182226168EB
:1016E0005200914200D0E36100232500A3625D35E2
:1016F0002B78DAB2002B05D123005C3320001A705E
:1017000000F024FD022340222B702168E6680B685C
:101710009343E0220B60D2000023964248D9F02286
:1017200018001201964200D0A362822284276368C7
:1017300052001340A2683F023A4002271343226935
:10174000A5693A4013430122676917403B4380274C
:10175000BF002F403B43E769373217403B43276ABE
:101760004832174080223B43A76A920117403B430F
:10177000102708220B60636A2D0C3B40676B1740F3
:101780003B43F0273F013E403343042635402B4383
:1017900003434B60CB69084803400020CB61012321
:1017A00020665D342370F8BD0023236163619BE7ED
:1017B00080204001B6E7C046FFF7FFFFF0B585B0D7
:1017C000009303005C3316001A7804000D00022712
:1017D000012A00D182E001221A70FFF77DFD23006B
:1017E00001905D331A78D7B2012A00D0A6E0002D0F
:1017F00071D0002E6FD002321A700023A21D236612
:101800002364A563A687E68702329387D387802265
:10181000A1682365E36412022368914208D1402144
:101820001A688A431A6080221968D2010A431A6032
:1018300040221968114202D119680A431A60E02156
:10184000E0686268C90088424BD9002A01D0012EA5
:1018500007D12A880235DA60E38FA563013B9BB28A
:10186000E3870225E38F002B19D12000019A00990C
:10187000FFF708FF00285ED1A368002B06D1039371
:101880002368DA6803929B680393039B226E002A05
:1018900021D1230001215D33170019701BE022685C
:1018A00093682B4209D0A36B19880233D160A363DC
:1018B000E38F013B9BB2E387D4E7FFF70DFD019B6C
:1018C000C01A009B9842CDD30133CBD02300012214
:1018D00003275D331A7000235C342370380005B091
:1018E000F0BD002A01D0012E08D12A781A73A36B0B
:1018F0000133A363E38F013B9BB2E3870225E38FB0
:10190000002BB2D023689A682A420AD0A26B1278C0
:101910001A73A36B0133A363E38F013B9BB2E3878D
:10192000EDE7FFF7D9FC019BC01A009B9842E6D374
:101930000133E4D0CAE7202323669DE70227CAE7E4
:1019400070B50124036A026AA243026273224468EA
:10195000856995430A681543022293438A681343B5
:101960000E4A904208D00E4A904205D00D4A90424D
:1019700002D00D4A90420BD108229343CA688E6967
:10198000134304229343094A22404C6934431443CD
:101990004A68446085614263036270BD002C014067
:1019A000004001400044014000480140FFFCFFFFAF
:1019B00070B5184A056A036A1340036273234268CC
:1019C000C4699C430B681C43134B1D408B681B026E
:1019D0002B43124DA8420ED1114D1D40CB681B0266
:1019E0002B43104D2B40104D8E6915404A693243F0
:1019F00012012A4308E00D4DA842F4D00C4DA84234
:101A0000F1D00C4DA842EED042604A68C461C26376
:101A1000036270BDFFFEFFFFFFFDFFFF002C0140D2
:101A2000FFF7FFFFFFFBFFFFFFCFFFFF004001407D
:101A3000004401400048014030B5144A046A036A7A
:101A4000134D134003624368C2692A400D682D029A
:101A50001543104A14408A68120322430E4CA042D8
:101A600008D00E4CA04205D00D4CA04202D00D4C27
:101A7000A04204D10C4C1C404B699B0123434360A2
:101A80004B68C5610364026230BDC046FFEFFFFFD3
:101A9000FF8CFFFFFFDFFFFF002C014000400140F3
:101AA0000044014000480140FFBFFFFF020030B585
:101AB00002243C32157803002000012D08D01800C4
:101AC0003D3004701B6859610123037000201070C1
:101AD00030BD000010B51E4C0368A0420AD01D4A5C
:101AE000904207D01C4A904209D11C4A1A40CB6848
:101AF00013430DE0702293434A681343F5E7184AF5
:101B00009042F2D0174A9042EFD0174A9042ECD060
:101B1000802293434A69134303608B68C3620B6856
:101B20008362A04208D00E4B984205D00D4B9842DC
:101B300002D00D4B984201D10B690363012242612F
:101B40000369134202D003699343036110BDC04689
:101B5000002C01400004004000200040FFFCFFFF7B
:101B600000400140004401400048014070B50400BD
:101B70000120002C21D025003D352B78DAB2002B36
:101B800005D123003C3320001A7000F00FFB022324
:101B90002B702068211DFFF79DFF220001230020EC
:101BA000463213704534083A137053709370D370F3
:101BB00013715371937123702B7070BD102270B527
:101BC000056A036A174C93430362426883692340A2
:101BD0000C6824021C4320239D438B681B012B436C
:101BE000114DA8420FD18025AB431E00CB68403D6C
:101BF0001B013343AB430D4D8E6915404A69324397
:101C000092002A4308E00A4DA842F4D0094DA842A8
:101C1000F1D0094DA842EED042604A6884618263E7
:101C2000036270BDFF8CFFFF002C0140FFF3FFFF3C
:101C3000004001400044014000480140F8B5060062
:101C40003C361500327803000C000220012A0AD02D
:101C500001383070082D3FD006D8002D19D0042D42
:101C600029D000233370F8BD0C2DFAD11D6828004F
:101C7000FFF7E2FE8023EA691B011343EB61EB6986
:101C80001D4A1340EB612369EA691B021343EB61B0
:101C90000FE01D682800FFF753FE0823AA691343CD
:101CA0000422AB61AB699343AB61AB692269134317
:101CB000AB610020D5E71D682800FFF77FFF802378
:101CC000AA691B011343AB61AB690B4A1340AB61BB
:101CD0002369AA691B02EAE71F683800FFF768FE5C
:101CE0000422FB691D43FD61FB699343FB61FB69B2
:101CF00022691343FB61DCE7FFFBFFFF1F2310B5E5
:101D0000012419408C408A40036AA3430362036A9A
:101D10001A43026210BD00000200030010B5002942
:101D200009D13E331B78013B581E8341DBB20120B1
:101D3000002B0AD010BD042901D13F33F2E7082956
:101D400001D14033EEE74133ECE7022310000029D4
:101D500024D13E300370146801222000FFF7CEFF2B
:101D6000164A944208D0164B9C4205D0154B9C4213
:101D700002D0154B9C421FD18023616C1B020B4388
:101D80006364944214D10722A3681340062B03D046
:101D900001232268134323600020CBE7042901D1EB
:101DA0003F30D7E7082901D14030D3E74130D1E7B0
:101DB000034B9C42ECD1E6E7044BFAE7002C0140D0
:101DC0000040014000440140004801400004004040
:101DD00010B5FFF7A1FF10BD70B505680022040023
:101DE00028000E00FFF78AFF194B1A4A9D4208D0BF
:101DF000194B9D4205D0194B9D4202D0184B9D4274
:101E00000AD12B6A134207D1296A164B194203D112
:101E10006B6C15490B406B642B6A134207D12A6A1D
:101E2000104B1A4203D101222B6893432B600123EC
:101E3000002E03D13E340020237070BD042E01D14A
:101E40003F34F8E7082E01D14034F4E74134F2E79B
:101E5000002C0140111100000040014000440140ED
:101E60000048014044040000FF7FFFFF10B5FFF76A
:101E7000B3FF10BD70B5040002223C342578030086
:101E80001000012D1CD01D0070263D352A701B68E6
:101E900058689A68B0430E683043586009488342D6
:101EA00005D00948834202D00848834204D18020EB
:101EB000496882430A439A60012300202B702070F6
:101EC00070BDC046002C01400004004000400140AD
:101ED00030B5102595B0282200210AA8FEF732FA65
:101EE0002A0000216846FEF72DFA2A00002104A8E6
:101EF000FEF728FA0323089380235B0211938023C3
:101F000001240C955B030E3D08A809940B941095D1
:101F10001293FEF747FE002801D072B6FEE70723B2
:101F2000029003902100684600930195FFF75EF848
:101F3000002801D072B6FEE72023079004A804937E
:101F4000FFF704F9002801D072B6FEE715B030BDE6
:101F500010B5FFF7A5F9FFF7BBFF00F029F800F077
:101F600069F800F0C9F800F05DF9FFF7B5F9040071
:101F700000F088FC200000F0A9FE00F0E3FF00F074
:101F800035FD200001F042FBFFF7A6F9040000F048
:101F900099FC200000F0C6FE200000F0F5FF2000B4
:101FA00001F058FB200000F065FDEDE772B6FEE79A
:101FB00070B588B01422002103A8FEF7C3F9802170
:101FC0001B4BC9035A6990240A435A615A69E405B4
:101FD0000A4080210092009A5A6989020A435A6194
:101FE0005A6920000A4080210192019A5A69C90267
:101FF0000A435A615B6901220B40029310210025BC
:102000000126029BFFF72CFA0323200003A9039368
:1020100004950596FFF766F91023200003A90393A2
:10202000049605950695FFF75DF908B070BDC046AA
:102030000010024010B5134B134C01222360134BC8
:10204000200063600023E260A36023616361A361F9
:10205000E3612362FEF746FB002801D0FFF7A6FFED
:1020600000212000FEF754FD002801D0FFF79EFF5D
:1020700000212000FEF772FD002801D0FFF796FF37
:1020800010BDC04600540040300000202B1D200031
:1020900010B5040088B01422002103A8FEF752F9FD
:1020A000124B22689A421ED18022114CD2026369DF
:1020B000104813436361636903A913400193019BB3
:1020C000C0230393AE3B04930F3B0693023B07935D
:1020D000FFF708F98022E36992031343E361E369A0
:1020E00013400293029B08B010BDC046005400404C
:1020F00000100240000400481248134B10B5036062
:1021000082235B00436080231B028360E0238022E4
:10211000DB00C360002392008261D13AFF3A036181
:102120004361C261036243628362293A03630833F5
:10213000C2624363FFF7CAFA002801D0FFF736FFF7
:1021400010BDC046840000200030014010B50400DE
:1021500088B01422002103A8FEF7F4F8114B22687E
:102160009A421DD18021104B49019A6990200A435F
:102170009A619A69C0050A4080210192019A5A69C0
:1021800089020A435A615B690B400293029BA023B8
:1021900003939E3B049303A901330693FFF7A2F830
:1021A00008B010BD0030014000100240074B02682B
:1021B00082B09A4208D10221054BDA690A43DA61FA
:1021C000DB690B400193019B02B0704700040040A3
:1021D0000010024010B5040086B01422002101A8AE
:1021E000FEF7B0F80C4B22689A4212D180210B4BBB
:1021F000C9025A690A480A435A615B6902220B40C4
:102200000093009B012301A9019302920593FFF71C
:1022100069F806B010BDC04600040040001002403E
:102220000004004830B58BB00822002101A8FEF759
:1022300089F81C22002103A8FEF784F8184C194BDA
:10224000002523602F236360174B2000A560E36007
:102250002561A561FFF78AFCA84201D0FFF7A6FE21
:10226000200001A901950295FFF704FE002801D086
:10227000FFF79CFE602303939533FF330493002301
:102280000822200003A905930793FFF7D7FC002835
:1022900001D0FFF78BFE2000FFF79CFF0BB030BD95
:1022A000E800002000040040E7030000FEE7FEE72E
:1022B0007047704710B5FFF703F810BD01210A4BB6
:1022C00082B09A690A439A619A690A408021009211
:1022D000009ADA6949050A43DA61DB690B40019328
:1022E000019B02B07047C046001002400D48854671
:1022F000FEF7C4F80C480D490D4A002302E0D458FB
:10230000C4500433C4188C42F9D30A4A0A4C00233F
:1023100001E013600432A242FBD3FEF767F8FFF737
:1023200017FEFEE700200020000000201000002023
:10233000A8470008100000209C030020FEE70000D2
:10234000F8B50C4A0C4E424005000021300000F068
:1023500007FF0B2407270F212209214025343000D5
:102360003A40E4B200F035FFAB2CF4D1034B1D60D2
:10237000F8BDC0464145434F3401002030010020E4
:10238000014B18607047C046300100200B4A13B55E
:102390001368C31A132B10D9106000F0ADFE00288B
:1023A0000BD0684600F0AEFE00F0B4FE044C030013
:1023B00000992000019A00F09DFF13BD300100201C
:1023C0003401002010B500F09BFB0024074A084BA5
:1023D0001278A24200D810BDA2009918D05C4978AA
:1023E0000122013400F096FBE4B2EFE7F80100208F
:1023F00034010020030010B500200F2B09D8054A36
:102400004C1CE2400124224203D1034AD05CC84064
:10241000204010BD01020000D0460008F0B50400C5
:102420000126072900DC002600200727DD0F9F4238
:102430004541F6B2EDB2AE4218D1033A012A16D8A0
:10244000059A033A012A12D8B94211D1082B0ED1AC
:10245000104B1B6883420ADD0F4A237A12789A4296
:1024600005D2013B2372637A013363720120F0BD10
:102470000829FCD1072BFAD1064B1B68002BF6DA92
:10248000054A237A12789A42F1D901332372637A8A
:10249000013BEAE70802002005020020F7B5204FC3
:1024A0000190102200213800FDF74CFF3E0000256E
:1024B000002429002000FFF79DFF002804D10122FD
:1024C000A2403388134333800134102CF1D10135FD
:1024D0000236082DECD1019B124D134A39005A40A7
:1024E000280000F03DFE114C28002200104900F0A9
:1024F0005BFE0C2200212000FDF724FF0D4B019A0A
:102500001A6000230C4A13600C4A13600C4A1360D3
:102510000C4A13700C4A13700C4B0D4A1A80F7BD0D
:10252000F402002024020020444E415318020020EF
:102530001D240008140200201002002008020020C0
:102540000C02002005020020040200200C000020E4
:1025500010270000014B18607047C046140200208D
:102560000C4B0D4AC3189BB270B504000020934277
:102570000ED80023094D22001900286801F006FA40
:10258000074E00233288FDF787FE28600120348043
:1025900070BDC0461EFBFFFF2E220000100200206F
:1025A0000C000020F0B587B0040000F0A5FD7E4BC4
:1025B000002802D11C6007B0F0BD1E68A61B132EB8
:1025C000F9D904A81C6000F09DFD049F0021381C6F
:1025D000FDF73AFE80231B06FD18002800D13D1CA4
:1025E000FE21281C8905FDF743FE041E39D16F49E1
:1025F000281CFDF729FE002807D10021381CFDF713
:1026000037FE0124002800D1023C694B694F1C6051
:10261000BB7A002B41D1002CCDD0012C24D1250038
:1026200008330193644B019A0293644B1B789542E3
:1026300001D0172B1BD9013C2200511E8A41604951
:1026400052420A405F4952183A608A1A7A606242DE
:10265000544164421C401B1B7B7201233C72BB72C1
:10266000A9E7FE25AD05C8E708250F23D9E7002611
:10267000029BC4331B78172B0DD831002800FFF7BD
:10268000B9FE002804D032002900029800F0A1FD14
:102690000136082EECD10135C4E74B4A1368A3423A
:1026A00003D00021494B14601960FA2E36D8002C53
:1026B00034D089213B68C905281C019301F0EAFC4C
:1026C000FC21890501F00AFA01F082F900233200A9
:1026D000190001F05BF900233A4A01F057F93B4D2C
:1026E0002B68029300230393029A039B801859419D
:1026F000C022374BD2011B885A430023FDF7CCFD83
:102700002A60012C35D1019B98423CD20300019AEA
:10271000D31A28492B4A0B60D31A4B601823254D36
:1027200028685843012C01D12A4BC0182549FDF7D0
:10273000D1FC294BC0B218702C7A6E7A00F0EAFCFA
:102740001D4F030004993800059A00F0D3FD002CBA
:102750001DD02C7A63425C4100239E4202D06B7AEA
:102760005A425341234314D001231C4AEB72137085
:1027700021E77B68984208D300222A60012CC6D04A
:10278000019AD318C5E7019BF6E70300F8E7002E8E
:10279000E5D12B7A002B00D10DE76B7A002B00D10D
:1027A00009E70023EB7206E7140200209A99193E0C
:1027B000080200201802002024020020E802002065
:1027C000C0BDF0FF40420F000C02002010020020AC
:1027D0000C0000203F420F000502002004020020F0
:1027E00070B500F08DF90024002529002000FFF7C6
:1027F00001FE2E000135002823D13100601EFFF7B5
:10280000F9FD00280BD0691E0122C9B2E0B200F028
:1028100081F9082DE9D10134102CE5D170BD3100CA
:10282000601CFFF7E7FD0028EDD12000711EFFF7C7
:10283000E1FD0028E7D129002000FFF7DBFD00289B
:10284000E1D132002100034800F0B4FC0028DAD1C5
:10285000DFE7C046240200200022024B18781A70DD
:102860007047C04604020020022110B5002800D0A5
:1028700001219020C005FEF7EDFD43425841C0B252
:1028800010BD000070B505000020FFF7EDFF002629
:10289000094C207060700120A6706560A560FFF78C
:1028A000E3FF064BA6731D60054B256165611E7035
:1028B0002073607370BDC0460C0300200803002025
:1028C00004030020224AF8B513680500C31A042B3C
:1028D0003CD9002601271F4C10603000FFF7C4FFD1
:1028E0002378834201D020706560237861788B4221
:1028F00024D06268AA1A182A20D96370002B11D03C
:102900000023A560A370AF22A3689200EB1A934244
:1029100019D30123A3700733002E0AD1063B08E028
:102920003E00DAE7A378002B0DD10433002E00D14E
:10293000033B094A11780B43137004E0002902D0CD
:10294000A378002BDFD00C34002EE9D0F8BDC046B0
:10295000080300200C030020040300200022024B87
:1029600018781A707047C04604030020144B010009
:102970001B68400870B5C018FDF7ACFB114B821EF8
:1029800004009A4201D9002070BD0F4D0821280093
:10299000FFF76CFA2B68621EDA62EA6000226408B4
:1029A000DC63012128005A62FFF780F80028EAD191
:1029B00008212800FFF70CFA43425841C0B2E3E770
:1029C0002C030020FEFF0000E800002010B50024CA
:1029D000044808210368DC63FFF748FA024B1C70C7
:1029E00010BDC046E80000202403002010B586B0CA
:1029F0001022002102A8FDF7A5FC01A902A8FEF7FC
:102A000089FBFEF777FB059B002B00D04000084BAD
:102A1000084C59680131FDF75DFB0022064B206030
:102A20001A70064B1A60FFF7D1FF06B010BDC04602
:102A3000E80000202C0300202503002028030020AC
:102A40000022084B10B51A70074B01321860074B73
:102A500007481A70FFF78AFF002801D1FFF7B6FF79
:102A600010BDC046250300202803002024030020B9
:102A70000B020000F7B5164D0024AC46154B164965
:102A8000019016481E7802680B78002E04D1002CA5
:102A900013D1F7BD3400F8E79D006544019F6D88B0
:102AA000BF1AAF42F3D30133DBB25219082BF1D175
:102AB00002600B70FFF78AFFEBE70260044A0B70BD
:102AC0009B00985AFFF752FF0028E2D1F2E7C04678
:102AD000E0460008240300202503002028030020EE
:102AE00070B5041C022800D90224044DE0B22B78F2
:102AF000834202D000F0AAF82C7070BD3003002091
:102B000010B5102200210248FDF71CFC10BDC04684
:102B10003203002030B505000F280BD8072909D84B
:102B20000120A840054C49000B5B80B2002A02D06E
:102B300003430B5330BD8343FBE7C0463203002001
:102B4000030000200F2B0AD8072908D8013098402D
:102B5000034A49008B5A1840431E9841C0B270473F
:102B600032030020F0B58BB01022002106A8FDF73B
:102B7000E9FB0025072601270024EBB201931B4B3C
:102B800002931B4B039320000199FFF7D9FF002804
:102B900013D0A6429B410398029A5B42DB0006A930
:102BA000C918D218C318200030401B5C3800984068
:102BB0000300525D885C03438B540134E4B2102C53
:102BC000E1D10135082DD7D1002506AC237804AA20
:102BD00001351371EDB2237A280005A95371013430
:102BE00000F016F8082DF1D10BB0F0BD0047000839
:102BF00010470008002010B5044B187000F034F89E
:102C0000FFF77EFFFFF7AEFF10BDC0463003002088
:102C100037B590254B7801ACED0563700B782070CB
:102C2000A070002228001021E370FEF719FC0A238F
:102C3000210004220448FEF7C1FD280001221021D2
:102C4000FEF70EFC37BDC0468400002007B5031C0C
:102C50000F2800D90F236A460A2001A91371537166
:102C6000FFF7D6FF07BD000037B500256B4604000F
:102C700001A90C209D80FFF7CBFF0F2001A9FFF7D2
:102C8000C7FF092001A9FFF7C3FF6A460E4B0B20BF
:102C900001A99380FFF7BCFF2000FFF7D7FF6B4629
:102CA00001249D802000013401A9E4B2FFF7B0FFA8
:102CB000092CF7D102236A46FF330C2001A9938027
:102CC000FFF7A6FF37BDC0460707000070B5002418
:102CD00005000B4B18221C700A4B21000A481C707F
:102CE000FDF730FB094B1C70094B1C70094B1D6034
:102CF000094B1D60094B1D60094B1C7070BDC0461F
:102D00006D0300206C0300205403002051030020B9
:102D1000500300204C0300204803002044030020FF
:102D200042030020F0B5694D0400287889B00628D8
:102D300031D8FDF7C5F9040E35044B73BF00644B61
:102D40001B68E31A632B26D90423002826D101230C
:102D500024E000235F4E7522337005330293043B59
:102D6000D0215D4801930096FDF7F4FD002806D0C0
:102D700002225A4B1A700022594B1A7007E033781E
:102D8000682B0AD00322554B1A70554B1870062336
:102D90002B704F4B1C6009B0F0BD02232B70FAE77B
:102DA000802304AA13707B3B0293043B0092D02142
:102DB0006B2249480193FDF7F3FC0028D8D1032387
:102DC0002B70434B1C60474B1870E4E7454E404F57
:102DD0003078012803D13B68E31A312BDBD9424B11
:102DE0004000C25C1B185B7804A90B70052302939A
:102DF000043B00913848D0210193FDF7D1FC002815
:102E0000B6D133783C600133DBB23370072BC2D1CB
:102E1000023B2B70354B1C60354BBBE7334A1368C4
:102E2000E31A092BB7D90523146004AE02930A33C1
:102E300001933A22D021284800960E3BFDF78AFDE7
:102E4000002895D1317801230A001A40194209D18E
:102E5000274B1B68E31A632B9DD904211F4B197064
:102E60001F4B8AE723493300032208005E789D78D0
:102E7000360235435E7A0D809D7A3602013A35433B
:102E8000D2B2CD8002330231002AEFD117236B4436
:102E90001A785B7804611B02134301225BBA8381B9
:102EA000436901334361124B1C600D4B1A700B4B8D
:102EB0001A7070E7064B1B68E41AFA235B009C4209
:102EC00000D268E70022054B1A7040E76D0300202E
:102ED0004C03002051030020300000206C03002030
:102EE0004203002050030020204700084803002030
:102EF0004403002054030020014B18787047C0465B
:102F00006C03002070B5041E12D00B4B00201B7800
:102F1000012B0DD1094B1878002809D0084B1A69EC
:102F2000891A632905D8220062CB62C232CB32C231
:102F300070BD0020FCE7C0466C0300204203002067
:102F40005403002000230021084A1360536093605B
:102F5000074A1360074A1360074A1370074A137041
:102F6000074A11605160074A1370704784030020BC
:102F7000800300207C0300207903002078030020D8
:102F8000700300206E030020F0B58FB0010008A888
:102F9000FFF7B8FF4F4B00280AD1002218704E4BA4
:102FA00018704E4B1A605A604D4B18700FB0F0BD40
:102FB0001B7800930D9B0393009B002B7AD0494B09
:102FC000039A1B689342F1D0002427002500464E47
:102FD000102104AA63005218D35E01931802009BCB
:102FE000002B07D033680B39C01A0293FDF7B8F8ED
:102FF000029BC018FF22C31713401B181B12A2000C
:1030000005A98B501A005A43AD18019A0134D31AFE
:10301000DA179B18534001C6FF18032CD8D10122A0
:103020002C4B2F491A702F4B039A1A6007220B78EA
:103030005A438023D2080A705B019F420BD9FF23B9
:103040007B432A481B188020C003834236D29B0B47
:103050009A4200D20B708023DB059D4230D30020C2
:10306000002B2FD11C4C1D4D23700023204A2B60B8
:1030700012686B600C9B9B1AC8225200934200D2CC
:1030800094E71C4B984200D890E701F0BFFA061C69
:103090000598404201F078FA311C00F07FFE28606C
:1030A000069801F071FA311C00F078FE0123686087
:1030B00023707BE70E4B0C9A1A6085E7FF23C9E764
:1030C0009B08CAE7C2184008AA4201D8AD1AC01826
:1030D0009B08C5E7790300207803002070030020D7
:1030E0006E0300207C030020840300200010F0FF0A
:1030F00080030020CB0C0000014B18787047C046BD
:1031000078030020020010B5014B12CB12C210BD93
:10311000700300200020034B1B78834201D0024B38
:1031200018787047780300206E0300200300C03336
:103130001A68510351404A0C4A40500150401860EF
:103140007047030001200F2908D8072A06D85832F3
:1031500082408840D35A1840431E9841704700006F
:10316000F0B504000E000B000027A03410360D1E31
:10317000278000D01D88023325820234B342F6D165
:1031800003000021C43319708A4200D1054A0300AC
:10319000C0331A6002000023C832CC3013600360D1
:1031A000F0BDC046F5792B6D0300C833CC301960F3
:1031B00002607047030000200F2909D8072A07D8AA
:1031C0000130884050325200D35A1840431E984173
:1031D00070470300F7B5C43301931B7804000F0058
:1031E000160000250093272B21D8FFF7AAFF051E04
:1031F0001FD1320039002000FFF7DCFF002816D174
:10320000009B019A01331370009B20009D006519FB
:103210006E702F70FFF78AFFC0B2688001252A0008
:10322000BA407600A419A0342388134323802800D1
:10323000FEBD0025FBE7F0B51F000023CB5687B08D
:10324000039305921300039A0D009446634402937E
:103250000123CB560299DE19320004000493FFF7D4
:1032600070FF002802D0002007B0F0BD320020001F
:103270000299FFF79FFF0028F5D1059B002B0FD087
:10328000002F0DD02000049A0299FFF75AFF002862
:1032900006D0320020000399FFF753FF0028E2D147
:1032A0002300C8331F68002F18D10120002201001D
:1032B000AA566B7891405B00E318A0331A888A43C2
:1032C00001001A80029A73009140E318A0331A8813
:1032D0000A431A80029B6E702B70C5E7200000968F
:1032E000CC30029B049A03990068B8470028DCD1CF
:1032F000B9E70000F0B5A1B00E91FE210E9C01903F
:103300008905201C0F920C93FCF7B2FF002807D10F
:103310009649201CFCF798FF002803D0934C01E04D
:10332000FE24A4058721201CC90500F0B3FE01F08E
:103330000DF9030013330790262B01D800230793C0
:10334000FE210F9C8905201CFCF792FF002807D165
:103350008649201CFCF778FF002803D0834C01E04D
:10336000FE24A4058721201CC90500F093FE01F06E
:10337000EDF8030013330690262B01D800230693A3
:10338000079AD317D718069A5F40D317D2185A4016
:1033900002920997974200DA0992029B03979F4293
:1033A00000DD0393019B16ADC4331C780023DAB211
:1033B000944221D82D19E3B2013D012B1FD80C9B5B
:1033C0005B080D9301230593079B002B02DA012371
:1033D0005B42059301230A93069B002B02DA01232B
:1033E0005B420A9300230893019B089AC4331B781D
:1033F000934211D821B0F0BDEA540133D7E70198C8
:10340000FFF794FE2100FCF7A1FE16AB2E785A5C64
:10341000013C2A705E54CEE7089A16AB9B5C019A79
:103420009B00D31804930C9B002B06D1099B002B07
:103430001BD1089B0133DBB2D5E70198FFF776FE7D
:10344000FF2318400D9B9842F0D20198FFF76EFEC3
:103450000723474A1840474B12561B5604990198B8
:10346000FFF7E9FE0028E1D0E3E7049B099A5B88B7
:103470009B189BB2FF2B02D8049A5380D9E7049A79
:10348000013BFF3B5380039B002B0FD10198FFF7BB
:103490004DFE0124204200D1023C059D029B2E00DE
:1034A0009F4209DA25000A9C002605E0059D029B43
:1034B0002E000A9C9F42F7DB029A2B001096119572
:1034C000974200DA6B421293029B0B949F4201DBFE
:1034D00000230B930B9B029A13931494230097429F
:1034E00000DB63421593039B002B0DD00198FFF77F
:1034F0001DFE0999FCF72AFE039B994204D20B9BFF
:103500001095119613941493002610ABF25813AB38
:10351000F35807990698514358430918002910DCBD
:1035200004360C2EF1D1039B002B11D10198FFF72B
:10353000FDFD800700D07CE7029B9F420BDA039CD5
:103540000AE004990198FFF776FE0028E8D070E7BA
:10355000029B9F4207DB002523002A000499019863
:10356000FFF769FE65E70024F6E7C046000080BF6C
:10357000364700082E47000810B50400FFF7BCFCD2
:10358000821ED2B203000020022A01D8013BD8B229
:10359000144B1B78012B08D8002806D000F0E8F95E
:1035A000FFF7E0FA104B1C6010BD042BF8D8180090
:1035B000FCF786FD0306090D1200FFF711F9EFE78E
:1035C000FEF700FFECE7200000F0CEF8E8E700F09F
:1035D00005F900F0A0F9E3E700F00EF900F0BAF900
:1035E000DEE7C046940300209003002010B5064C8F
:1035F0002078002802D100F091F801E00128FAD0EB
:103600000223237010BDC0469403002010B50400AF
:1036100000F0D0F8FFF7EEFA00F0EEF8FFF760FAEE
:103620002000FEF73BFF00F0D3F8FEF799FF2000E3
:10363000FEF786FE002000F071F80022034B200008
:103640001A70034B1C60FFF797FF10BD9403002016
:103650009003002070B50500FFF780F92D4E04009F
:103660003378022B22D008D9DA1E012A3BD92A4B03
:103670001B68EB1A182B05D870BDA40706D52800C7
:10368000FFF7B4FF2800FFF777FFF5E72800002BCE
:1036900009D1FEF787FFFFF7DFF80028E7D0280001
:1036A000FFF7CEF9E3E7FEF771FEE0E700F044F83C
:1036B00000280CD000F03AF8032808D8FCF700FDE9
:1036C000020A0F112800FEF745FF00233370002C7B
:1036D000CDD0D7E72800FEF753FE0123F6E70323FA
:1036E000F4E70423F2E78207C9D405221042BED0D2
:1036F00001202040032B06D100F084F800F068F888
:10370000FEF72EFFBEE700F095F800F075F8FFF722
:10371000E7F9B7E79403002090030020032801D8BD
:10372000014B18707047C04695030020014B187874
:103730007047C0469503002003000122100099073E
:1037400008D4134207D0074A1378033303210B40F0
:103750001370002070475B07FBD5024A13780133D2
:10376000F4E7C0469503002070B50500FFF7C8F9DF
:103770000E4C0F4B22780021985C00F0C6F82078A0
:10378000022201300A21C0B200F084F8C8212800CA
:103790004900FCF79FFC0122104205D121780F203F
:1037A0009140C9B2FFF7B6F970BDC046950300203D
:1037B0003E470008034B044A1A800022034B1A704C
:1037C0007047C04698030020102700009603002091
:1037D000014B18887047C046980300201820FA2132
:1037E000044B10B51B8889005843FCF773FC80B26A
:1037F00010BDC04698030020014B18787047C046A2
:1038000096030020074A1388002806D006498B42F9
:1038100002D806495B181380704704498B42FBD9D4
:103820000349F7E7980300200F270000E204000097
:103830001EFBFFFF064A1378002804D0012B01D895
:10384000013313707047002BFCD0013BF9E7C046F1
:10385000960300200723F7B50025062601274343DA
:103860000B4A01919B1800930024009BE1B25A5D22
:10387000331BDA40019B3A405819C0B20134FFF7BC
:1038800049F9072CF1D10135072DEDD1F7BDC0461F
:1038900042470008F0B585B00291039209281BD871
:1038A000052300250226012743430C4A9B18019358
:1038B0000024019B5A5D331BDA40039B3A401919DF
:1038C000029BC9B25819C0B20134FFF723F9032C87
:1038D000EFD10135052DEBD105B0F0BD65470008EE
:1038E00070B50C000A210500FCF7F4FB0022210052
:1038F000C0B2FFF7CFFF28000A21FCF727FC042203
:10390000C8B22100FFF7C6FF70BD10B5042801D86A
:10391000FFF7A0FF10BD10B50400FFF7F1F83C2140
:103920002000FCF7D7FB0121C0B2FFF7D9FF200030
:103930003C21FCF70BFCC8B20921FFF7D1FF0122A3
:1039400003210720FFF7E6F8012203210820FFF7F3
:10395000E1F810BD10B50400FFF7D2F800210320F4
:10396000FFF778FF02220A212000FFF793FF10BD26
:1039700010B50400FFF7C4F800210420FFF76AFF28
:1039800002220A212000FFF785FF10BDF7B5040CC5
:103990000D0091B20F0061438C460600019383B283
:1039A000100C5F43444358433B0C60441B1899423E
:1039B00002D9802149026418019955437143180CBA
:1039C00004191B04BFB24919D819091903B0F0BD75
:1039D0009E2110B5C905041CFCF754FC00280AD030
:1039E0009E21201CC90500F049FC00F0AFFD80239A
:1039F0001B06C01810BD201C00F0A8FDFAE7F0B5AA
:103A000006000F0015001C0085B08B4263D801D161
:103A1000824260D821002800FCF788FC3900009021
:103A20003000FCF783FC009B21001B1A1A002800C1
:103A30000393FCF751FC00900191B94245D801D1A4
:103A4000B04242D8009B019C01200021039AF61A43
:103A5000A741FCF741FC04000D00039B002B2BD079
:103A6000019B009ADB0750081843019B5908039BF0
:103A70009C46B9422CD801D1B04229D832003B0033
:103A8000121A8B41012692185B410027B6185F413C
:103A900001235B429C446346002BEAD1300039008D
:103AA000039AFCF7B3FB039AA4197D4106000F00AB
:103AB000FCF712FC241A8D410A9B002B01D01E60DA
:103AC0005F602000290005B0F0BD00240025C4E798
:103AD000B6197F41DCE700240025EDE7F7B5802724
:103AE00043025A0A94464A024400C50F500A019004
:103AF0004800240E000E9B09C90F9209261AFF04E4
:103B00008D4200D097E0002E47DD002835D1002AF5
:103B100012D0661E012C0DD19B185A010CD5013410
:103B2000FF2C00D12BE101229A491A405B080B407F
:103B3000134301E0FF2C23D15A0704D00F221A406F
:103B4000042A00D004335A0105D50134FF2C00D1DA
:103B50001DE1914A1340DB08FF2C04D1002B02D059
:103B60008022D2031343FF22E005D2055B021040FE
:103B70005B0AED0718432843FEBDFF2CDCD03A4317
:103B800001211B2E07DC2020801B11008240F14008
:103B9000501E824111435B18BFE7002E21D0011B4C
:103BA000002C0CD1002B00D1E4E04C1E012902D1E5
:103BB00001249B18B1E7FF2905D1130033E0FF284A
:103BC000FBD00C003B4301211B2C07DC19002026F5
:103BD000E140341BA3405C1EA341194304008B1831
:103BE0009BE7FE20611C01421FD1002C0BD1002B52
:103BF00000D1C1E0002A9FD09B183B429CD0664A6E
:103C000013400C0098E7002BD7D0FF24002A00D1E6
:103C100092E78023DB039C4503D3019A9A4200D2AA
:103C200094466346DB00FF2486E7FF2900D1A5E028
:103C30009B185B08E5E7002E23DD00281CD1002A35
:103C400000D179E7661E012C06D19B1A5A0100D4D7
:103C500072E79B019E0970E0FF2C00D16CE7012107
:103C60001B2E07DC2020801B11008240F140501EDB
:103C7000824111435B1AE9E7FF2C00D15CE73A432C
:103C8000EDE7002E23D0061B002C0DD1002B78D0A1
:103C9000751E012E03D10D00D31A0134D6E7FF2E75
:103CA00006D113000D00BEE7FF28FAD035003B43D4
:103CB00001241B2D07DC1C002026EC40751BAB40AB
:103CC0005D1EAB411C43131B0D000400BEE7FE2626
:103CD000601C30422CD1002C12D1002B03D1002AC1
:103CE00053D11D0028E7002A00D125E7981AD31ADE
:103CF000384248D1031E00D01EE7230025001BE7F1
:103D0000002B05D1002ACCD11D0080239B048AE71B
:103D1000FF24002A00D10FE78023DB039C4500D25B
:103D20007FE7019A9A4200D37BE794460D0078E73B
:103D30009E1A3E4215D00D00D61A3000FCF7D8FA74
:103D4000330005388340844210DC2022001B013000
:103D5000121A19009340C1405A1E934100240B438C
:103D6000EAE6002EE9D133003400BAE70A4A241A01
:103D70001340E1E6130044E71300DDE60C000023E6
:103D8000DAE6130034000D00D6E61300FBE700234B
:103D9000E1E6C046FFFFFF7DFFFFFFFBF0B5C30F6D
:103DA00085B0440245000F1C640A2D0E0393009356
:103DB0002CD0FF2D38D08023E400DB047F3D1C4352
:103DC000029500267B007D021B0E6D0A0193FF0FFA
:103DD000002B2FD0FF2B3AD08023019AED00DB047B
:103DE0001D437F3A00210298039B821AB0000843CA
:103DF00001387B400E2830D8FCF762F99E856B8530
:103E0000A0856B9E9EA06B6E6E6E60000126029474
:103E1000002CD7D02000FCF76BFA431F9C40762380
:103E20005B421B1A0293CCE703260295002CC9D1F2
:103E3000013EC7E72A000121002DD4D02800FCF75D
:103E400057FA7622431F52429D40121ACAE70321B5
:103E5000019A002DC7D10139C5E764016D01AC425B
:103E600028D31A200121641B012627004900640081
:103E7000002F01DBA54201D8641B31430138002823
:103E8000F3D1601E844100930C4310007F30002862
:103E90002ADD630704D00F232340042B00D0043411
:103EA000230103D580321000284B1C40FE2819DC6A
:103EB000E4081FE01B200021013AD5E78023DB0343
:103EC0001C4201D01D423ED08023DB031C43FF2057
:103ED00010E02C000E000097012E09D0002ED4D047
:103EE000022EF1D10024F2E701231B1A1B2B0CDD5B
:103EF00000242000009B6402640AC0052043DB0705
:103F0000184305B0F0BD0093F2E79E3221009440C3
:103F1000D940621E94410C43630704D00F23234011
:103F2000042B00D0043480232000DB0418401C4202
:103F3000BED000240120DDE70093D3E780240023D6
:103F4000E4030093C0E72C000097BDE7FFFFFFF7F5
:103F500070B54B00440245004E02C20F640A0120B6
:103F60002D0E760A1B0EC90FFF2D06D1002C13D182
:103F7000FF2B11D1002E06D00EE0FF2B0CD09D425E
:103F80000AD1B44208D100208A4205D00130002D68
:103F900002D12000431E984170BD30B54202450059
:103FA0004C02C30F4800520A2D0E640A000EC90FBE
:103FB000FF2D01D1002A19D1FF2801D1002C15D1E4
:103FC000002D20D1002813D1002A1ED1002C21D091
:103FD000012000291ED102381CE08542F8DBA242F4
:103FE0000CD80020A24215D20130F2E7022008E0EE
:103FF000002AEDD099420AD18542EEDD0120002948
:1040000008D0404206E00028F4D1002CF2D1012073
:10401000002BF6D130BD30B5420245004C02C30F33
:104020004800520A2D0E640A000EC90FFF2D01D15F
:10403000002A19D1FF2801D1002C15D1002D20D143
:10404000002813D1002A1ED1002C21D001200029E4
:104050001ED102381CE08542F8DBA2420CD80020B9
:10406000A24215D20130F2E7022011E0002AEDD081
:1040700099420AD18542EEDD0120002908D0404254
:1040800006E00028F4D1002CF2D10120002BF6D15B
:1040900030BD0000F0B5C30F85B047024400019168
:1040A0007F0A240E03930AD0FF2C5DD080227F3C30
:1040B00026000023FF00D204174300930CE00123E5
:1040C0003E1E009308D03800FCF712F97626431FF5
:1040D0009F407642361A0094019B5C025D00DB0F24
:1040E000640A2D0E019346D0FF2D50D08023280066
:1040F000E400DB041C437F38002382190292551C24
:10410000009A039992001A430A2A59DC0198414007
:10411000022A42DC013A012A58D9200CA4B23B0CF5
:10412000BAB227005C435743434342439C461219AB
:104130003B0C9B189C4202D98022520294441A04E0
:10414000BFB2D719BC01621E94411B0CBF0E634461
:104150003C439B011C431B0104D5012362081C4006
:1041600014430295029D37E0032326000093002F9D
:10417000B2D1013BA1E720000123002CBDD0FCF708
:10418000B7F8431F9C4076235B42181AB4E7280017
:104190000323002CB1D1013BAFE701209040020086
:1041A000A6201600C000064002420DD190208000DB
:1041B000024254D1B938FF380242AED0019905E02D
:1041C0000F2A1ED00B2AF9D03C00009B022B4ED0A8
:1041D000032B47D0012B20D028007F30002818DD8A
:1041E000630704D00F232340042B00D004342301A1
:1041F00003D52800204B80301C40FE2837DCE40823
:104200000DE08023DB031F4201D01C4231D03C0073
:1042100028E001231B1A1B2B09DD00242000640267
:10422000640AC0052043C907084305B0F0BD220059
:104230009E35DA40AC401300621E94411C43630774
:1042400004D00F232340042B00D00434802320000B
:10425000DB0418401C42D2D000240120DFE7802478
:104260003100E4038023DB031C43FF20D7E7002455
:10427000FBE727000199CAE7FFFFFFF7F7B54A02FE
:1042800043024400C50F500A5B0A009048009C4658
:104290000193240EDB00000ECE0F9209FF2802D1FD
:1042A0003100002A01D1012171408027261AFF0424
:1042B000A94200D097E0002E47DD002835D1002A22
:1042C00012D0661E012C0DD19B185A010CD5013459
:1042D000FF2C00D12BE101229A491A405B080B40C8
:1042E000134301E0FF2C23D15A0704D00F221A40B8
:1042F000042A00D004335A0105D50134FF2C00D123
:104300001DE1914A1340DB08FF2C04D1002B02D0A1
:104310008022D2031343FF22E005D2055B02104046
:104320005B0AED0718432843FEBDFF2CDCD03A435F
:1043300001211B2E07DC2020801B11008240F14050
:10434000501E824111435B18BFE7002E21D0011B94
:10435000002C0CD1002B00D1E4E04C1E012902D12D
:1043600001249B18B1E7FF2905D1130033E0FF2892
:10437000FBD00C003B4301211B2C07DC190020263D
:10438000E140341BA3405C1EA341194304008B1879
:104390009BE7FE20611C01421FD1002C0BD1002B9A
:1043A00000D1C1E0002A9FD09B183B429CD0664AB6
:1043B00013400C0098E7002BD7D0FF24002A00D12F
:1043C00092E78023DB039C4503D3009A9A4200D2F4
:1043D0000192019BDB00FF2486E7FF2900D1A5E0C5
:1043E0009B185B08E5E7002E23DD00281CD1002A7E
:1043F00000D179E7661E012C06D19B1A5A0100D420
:1044000072E79B019E0970E0FF2C00D16CE701214F
:104410001B2E07DC2020801B11008240F140501E23
:10442000824111435B1AE9E7FF2C00D15CE73A4374
:10443000EDE7002E23D0061B002C0DD1002B78D0E9
:10444000751E012E03D10D00D31A0134D6E7FF2EBD
:1044500006D113000D00BEE7FF28FAD035003B431C
:1044600001241B2D07DC1C002026EC40751BAB40F3
:104470005D1EAB411C43131B0D000400BEE7FE266E
:10448000601C30422CD1002C12D1002B03D1002A09
:1044900053D11D0028E7002A00D125E7981AD31A26
:1044A000384248D1031E00D01EE7230025001BE739
:1044B000002B05D1002ACCD11D0080239B048AE764
:1044C000FF24002A00D10FE78023DB039C4500D2A4
:1044D0007FE7009A9A4200D37BE70D00019278E7CC
:1044E0009E1A3E4215D00D00D61A3000FBF700FF91
:1044F000330005388340844210DC2022001B013049
:10450000121A19009340C1405A1E934100240B43D4
:10451000EAE6002EE9D133003400BAE70A4A241A49
:104520001340E1E6130044E71300DDE60C0000232E
:10453000DAE6130034000D00D6E61300FBE7002393
:10454000E1E6C046FFFFFF7DFFFFFFFB41024300A6
:10455000C20F490A00201B0E7E2B03DD9D2B02DDBE
:10456000084BD0187047802000040843952B05DDC8
:10457000963B9840002AF5D04042F3E79621CB1AAB
:10458000D840F7E7FFFFFF7F70B503000500041E6A
:104590000ED0C21784185440C50F2000FBF7A8FEA8
:1045A0009E231B1A962B0ADC08282AD00838844040
:1045B0006402D805640AED072043284370BD992B97
:1045C0001BDD05222100121AD1400A0001001B3117
:1045D0008C40611E8C41224314000B490C4056074D
:1045E00004D00F263240042A00D00434620102D5E0
:1045F0009F230C401B1AE408DAE7421F9440220074
:10460000EAE79623D4E7C046FFFFFFFB002370B51F
:104610000400984209D0FBF76BFE9E231B1A962BD1
:1046200008DC082828D0083884406402D805640AC9
:10463000204370BD992B1BDD020021001B329140ED
:104640000A00511E8A410521091ACC402243140058
:104650000A490C40550704D00F252A40042A00D0EF
:104660000434620102D59F230C401B1AE408DCE7E6
:10467000421F94402200EAE79623D6E7FFFFFFFBA4
:10468000F8B5C046F8BC08BC9E467047F8B5C046B1
:08469000F8BC08BC9E4670470F
:104698000000000001020304000000000000000008
:1046A80001020304060708090102030405060708B6
:1046B800090A0B0C0D0E0F10020304050607080962
:1046C8000A0B0C0D0E0F1010007E7E7E7E3C181813
:1046D80018183C7E7E7E7E000B02F4019302F401E2
:1046E8001003F4011704E8031003F4019302F40122
:1046F8004B02F4010B02E80307060504030201005C
:104708000706050403020100060504030201000769
:1047180006050403020100076B016C001A0319095E
:104728001B001C0038010001010100FFFFFF01010F
:1047380000FFFFFF0001000102037F22140814227A
:104748007F0808141422221C1C22494D41221C49AE
:104758002A1C7F1C2A497F40407C40407F07050572
:1047680005070206020207070107040707010701F8
:1047780007050507010107040701070704070507DF
:1047880007010202020705070507070507010700D9
:0847980066F2FF7F0100000042
:0447A0005D040008AC
:0447A40035040008D0
:1047A80000127A0001000000040000001027000039
:04000005080022EDE0
:00000001FF
